:020000040800F2
:100000000000022055360008D7090008E50900085D
:10001000EB090008F1090008F709000800000000DA
:10002000000000000000000000000000FD090008C2
:100030000B0A000800000000190A0008270A00083F
:10004000A5360008A5360008A5360008A536000824
:10005000A5360008A5360008A5360008A536000814
:10006000A5360008A5360008A5360008A536000804
:10007000A5360008A5360008A5360008A5360008F4
:10008000A5360008A5360008A5360008A5360008E4
:10009000A5360008A5360008A5360008A5360008D4
:1000A000A5360008A5360008A5360008A5360008C4
:1000B000A5360008A5360008A5360008A5360008B4
:1000C000A5360008A5360008A5360008A5360008A4
:1000D000A5360008350A0008A5360008A536000830
:1000E000A5360008A5360008A5360008A536000884
:1000F000A5360008A5360008A5360008A536000874
:10010000A5360008A5360008A5360008A536000863
:10011000A5360008A5360008A5360008A536000853
:10012000A5360008A5360008490A0008A5360008CB
:10013000A5360008A5360008A5360008A536000833
:10014000A5360008A5360008A5360008A536000823
:10015000A5360008A53600085D0A0008A536000887
:10016000A5360008A5360008A5360008A536000803
:10017000A5360008A5360008A536000800000000D6
:08018000A5360008A5360008B1
:1001900010B5054C237833B9044B13B10448AFF3C1
:1001A00000800123237010BD940000200000000097
:1001B000F03F000808B5034B1BB103490348AFF3F8
:1001C000008008BD0000000098000020F03F0008FB
:1001D000034613F8012B002AFBD1181A0138704787
:1001E00001F0FF01102A2BDB10F0070F08D010F8E8
:1001F000013B013A8B422DD010F0070F42B3F6D1EC
:10020000F0B441EA012141EA014122F007047FF004
:1002100000070023F0E80256083C85EA010586EA5B
:10022000010685FA47F5A3FA87F586FA47F6A5FA97
:1002300087F68EB9EED1F0BC01F0FF0102F00702A3
:1002400032B110F8013B013A83EA010313B1F8D14E
:100250000020704701387047002D06BF354603382F
:10026000073815F0010F07D1013015F4807F02BF68
:10027000013015F4C03F0130F0BC0138704700BFB9
:1002800053B94AB9002908BF00281CBF4FF0FF31FD
:100290004FF0FF3000F06EB9ADF1080C6DE904CEFF
:1002A00000F006F8DDF804E0DDE9022304B0704751
:1002B0002DE9F047089D04468C46002B40F08380D2
:1002C0008A42174647D9B2FA82F242B1C2F12000FF
:1002D00024FA00F09140974040EA010C94404FEA24
:1002E0001748230CBCFBF8F61FFA87FE08FB16C163
:1002F00043EA014306FB0EF1994209D9FB1806F1C6
:10030000FF3080F01981994240F21681023E3B4451
:100310005B1AA4B2B3FBF8F008FB103344EA0344C1
:1003200000FB0EFEA64509D93C1900F1FF3380F011
:100330000581A64540F2028102383C4440EA06406D
:10034000A4EB0E0400261DB1D4400023C5E90043F0
:100350003146BDE8F08702B9FFDEB2FA82F2002A28
:1003600050D1CB1B4FEA174E1FFA87F80126B3FB7B
:10037000FEFC210C0EFB1C3341EA034108FB0CF38D
:100380008B4207D979180CF1FF3002D28B4200F270
:10039000E9808446C91AA3B2B1FBFEF00EFB10112E
:1003A00043EA014408FB00F8A04507D93C1900F1D5
:1003B000FF3302D2A04500F2D9801846A4EB08040E
:1003C00040EA0C40BFE78B4209D9002D00F0B18014
:1003D0000026C5E9000130463146BDE8F087B3FA92
:1003E00083F6002E4AD18B4202D3824200F2B880BB
:1003F000841A61EB030101208C46002DA8D0C5E9C9
:10040000004CA5E7C2F1200320FA03F6974001FA59
:1004100002F04FEA174ED9403043030CB1FBFEF611
:100420001FFA87F80EFB161143EA014306FB08F199
:10043000994204FA02F409D9FB1806F1FF3C80F056
:100440008D80994240F28A80023E3B445B1A81B221
:10045000B3FBFEF00EFB103341EA034100FB08F34F
:100460008B4207D9791800F1FF3C73D28B4271D9C6
:1004700002383944CB1A40EA064678E7C6F1200C28
:1004800003FA06F422FA0CF31C4320FA0CF701FAE3
:1004900006F34FEA144E21FA0CF11F433B0CB1FB5B
:1004A000FEF91FFA84F80EFB191143EA014109FB1A
:1004B00008FA8A4502FA06F200FA06F308D961182A
:1004C00009F1FF3048D28A4546D9A9F102092144F1
:1004D000A1EB0A01BFB2B1FBFEF00EFB101147EA1F
:1004E000014700FB08F8B84507D9E71900F1FF31CB
:1004F0002ED2B8452CD90238274440EA0940A7EB50
:100500000807A0FB02894F45C64649461AD317D0B3
:100510005DB1B3EB0E0267EB010707FA0CFCF2408A
:100520004CEA0202F740C5E9002700263146BDE843
:10053000F0872E4628460BE70646E9E61846FDE614
:100540004345E5D2B8EB020E69EB04010138DFE761
:100550000846D2E760468DE78146B9E7664675E70B
:1005600030464AE7ACF1020C394413E702383C4408
:1005700024E700BF704700BF80B582B000AF78604D
:1005800039607B68114A1A607B683A685A607B68F8
:1005900000229A607B680022DA607B6800221A6180
:1005A0007B680C225A617B6800229A617B6800227A
:1005B000DA61786802F014F80346002B01D000F0ED
:1005C00003FA00BF0837BD4680BD00BF00100140E0
:1005D00080B500AF084B10221A60074B01225A6009
:1005E000054B02229A60044B0322DA600249034859
:1005F00000F088FF00BF80BDA8020020000002407C
:1006000080B584B000AF786039600023FB6015E0EE
:1006100003F076F802460E4B83FB02131344D91104
:10062000D317C91A0B461B025B1AD11A7A68FB68EA
:100630001344CAB21A70FB680133FB60FA683B6866
:100640009A42E5D300BF00BF1037BD4680BD00BF52
:100650008180808080B483B000AF78607B68064A78
:10066000934202D1054B01221A7000BF0C37BD46E0
:100670005DF8047B704700BF04040020A402002042
:1006800080B584B000AF7860396079683868FFF76A
:1006900073FF1A4B00221A60194B00221A704FF494
:1006A000FA711848FFF7ACFF4FF4FA721549386831
:1006B00002F0A8F80346FB73FB7B002B14D1012248
:1006C0001021114801F0B6F904E00C4B1B6801330E
:1006D0000A4A13600A4B1B78DBB2002BF5D00022CC
:1006E0001021094801F0A6F9386801F0C6FF034B54
:1006F0001B6818461037BD4680BD00BFBC020020F5
:10070000A4020020B00000200000024080B586B0A6
:1007100000AFF860B9607A604FF416517868FFF75F
:100720002BFF00237B6117E07B699B00FA68134471
:100730001B681A460E490F4803F016F80D48FFF7DC
:1007400047FD03469AB24FF6FF730A49786801F0F5
:10075000C0FF7B6901337B617A69BB689A42E3D34E
:10076000786801F08AFF00BF1837BD4680BD00BF22
:1007700008400008C002002090B583B000AF0023FD
:100780007B601CE000233B6013E0134A7B6852F857
:1007900023007A6813465B001A443B68D4180F495B
:1007A000FFF76EFF03460E4A42F824303B680133E0
:1007B0003B603B68022BE8D97B6801337B607B6838
:1007C000082BDFD9054A1B210548FFF79FFF00BF13
:1007D0000C37BD4690BD00BF00000020040400207F
:1007E000CC02002080B582B000AF01F071FE00F0B5
:1007F00021F800237B600D4B1B6B0C4A43F0010377
:1008000013630A4B1B6B03F001037B607B68FFF7EC
:10081000DFFE00F0BFF800F095F800F069F804483A
:1008200001F02BFFFFF7A8FFFEE700BF00380240F2
:100830000404002080B594B000AF07F120033022FB
:100840000021184602F054FF07F10C0300221A6041
:100850005A609A60DA601A610023BB60224B1B6CFD
:10086000214A43F0805313641F4B1B6C03F08053E9
:10087000BB60BB6800237B601C4B1B681B4A43F4B6
:1008800080431360194B1B6803F480437B607B68D3
:1008900002233B620123FB6210233B630023BB6303
:1008A00007F12003184600F0EDF90346002B01D0B4
:1008B00000F08AF80F23FB6000233B6100237B617B
:1008C0000023BB610023FB6107F10C0300211846E4
:1008D00000F048FC0346002B01D000F075F800BF83
:1008E0005037BD4680BD00BF003802400070004058
:1008F00080B500AF114B124A1A60104B4FF4E13231
:100900005A600E4B00229A600C4B0022DA600B4BAF
:1009100000221A61094B0C225A61084B00229A618D
:10092000064B0022DA61054801F05AFE0346002B0F
:1009300001D000F049F800BF80BD00BF04040020D2
:100940000010014080B582B000AF00237B60104BE7
:100950001B6B0F4A43F4800313630D4B1B6B03F4B3
:1009600080037B607B68002200213A2001F06BFD50
:100970003A2001F084FD00220021462001F063FDB1
:10098000462001F07CFD00BF0837BD4680BD00BF9A
:100990000038024080B483B000AF00237B60094B75
:1009A0001B6B084A43F001031363064B1B6B03F0F8
:1009B00001037B607B6800BF0C37BD465DF8047B9C
:1009C000704700BF0038024080B400AF00BFBD4692
:1009D0005DF8047B704780B400AF00BFBD465DF892
:1009E000047B704780B400AFFEE780B400AFFEE741
:1009F00080B400AFFEE780B400AFFEE780B400AF84
:100A000000BFBD465DF8047B704780B400AF00BFF7
:100A1000BD465DF8047B704780B400AF00BFBD46A3
:100A20005DF8047B704780B500AF01F0A3FD00BF07
:100A300080BD000080B500AF024801F04FFF00BF4D
:100A400080BD00BF0404002080B500AF024801F063
:100A500091F900BF80BD00BFA403002080B500AFA6
:100A6000024801F087F900BF80BD00BF44030020A9
:100A700080B483B000AF00237B60104B5B6C0F4AE7
:100A800043F4804353640D4B5B6C03F480437B6001
:100A90007B6800233B60094B1B6C084A43F0805382
:100AA0001364064B1B6C03F080533B603B6800BF34
:100AB0000C37BD465DF8047B704700BF003802402C
:100AC00080B58AB000AF786007F1140300221A6085
:100AD0005A609A60DA601A617B681B684C4A9342DC
:100AE00040F0918000233B614A4B5B6C494A43F0E4
:100AF00010035364474B5B6C03F010033B613B698D
:100B00000023FB60434B1B6B424A43F0010313631A
:100B1000404B1B6B03F00103FB60FB684FF4C063A9
:100B20007B610223BB610023FB6103233B6207233C
:100B30007B6207F114031946374800F0E3FC374B9A
:100B4000374A1A60354B4FF000625A60334B4022EF
:100B50009A60324B0022DA60304B4FF480621A61A7
:100B60002E4B00225A612D4B00229A612B4B002202
:100B7000DA612A4B00221A62284B00225A62274867
:100B800000F072FF0346002B01D0FFF71DFF7B68CA
:100B9000224A1A63214A7B689363224B224A1A60D5
:100BA000204B4FF000625A601E4B00229A601D4B92
:100BB0000022DA601B4B4FF480621A61194B00224D
:100BC0005A61184B00229A61164B0022DA61154BCC
:100BD00000221A62134B00225A62124800F044FFAE
:100BE0000346002B01D0FFF7EFFE7B680D4A5A63E6
:100BF0000C4A7B68936300220021252001F023FC2E
:100C0000252001F03CFC00BF2837BD4680BD00BF59
:100C10000010014000380240000002404403002060
:100C2000B8640240A40300204064024080B582B052
:100C300000AF78607B681B680F4A934217D10F4B57
:100C40005B6C0E4A23F0100353644FF4C0610C48F0
:100C500000F0F4FD7B681B6B184600F0B3FF7B6867
:100C60005B6B184600F0AEFF252001F016FC00BFBC
:100C70000837BD4680BD00BF00100140003802406B
:100C80000000024080B586B000AF78607B68002B22
:100C900001D101235BE27B681B6803F00103002B99
:100CA00075D0A34B9B6803F00C03042B0CD0A04B16
:100CB0009B6803F00C03082B12D19D4B5B6803F477
:100CC0008003B3F5800F0BD1994B1B6803F40033FD
:100CD000002B5BD07B685B68002B57D1012336E289
:100CE0007B685B68B3F5803F06D1914B1B68904AE7
:100CF00043F4803313601DE07B685B68B3F5A02F7D
:100D00000CD18B4B1B688A4A43F480231360884BB9
:100D10001B68874A43F4803313600BE0844B1B68E5
:100D2000834A23F480331360814B1B68804A23F489
:100D3000802313607B685B68002B13D001F02EFCCE
:100D4000386108E001F02AFC02463B69D31A642BA3
:100D500001D90323FBE1764B1B6803F40033002B1E
:100D6000F0D014E001F01AFC386108E001F016FC44
:100D700002463B69D31A642B01D90323E7E16C4B8C
:100D80001B6803F40033002BF0D100E000BF7B6848
:100D90001B6803F00203002B63D0654B9B6803F0D4
:100DA0000C03002B0BD0624B9B6803F00C03082B49
:100DB0001CD15F4B5B6803F48003002B16D15C4BA6
:100DC0001B6803F00203002B05D07B68DB68012B56
:100DD00001D00123BBE1564B1B6823F0F8027B686E
:100DE0001B69DB00524913430B603AE07B68DB6808
:100DF000002B20D04F4B01221A6001F0CFFB38614D
:100E000008E001F0CBFB02463B69D31A022B01D963
:100E100003239CE1464B1B6803F00203002BF0D038
:100E2000434B1B6823F0F8027B681B69DB004049D9
:100E300013430B6015E03F4B00221A6001F0AEFB3C
:100E4000386108E001F0AAFB02463B69D31A022B85
:100E500001D903237BE1364B1B6803F00203002B0F
:100E6000F0D17B681B6803F00803002B30D07B684F
:100E70005B69002B16D0304B01221A6001F08EFB0B
:100E8000386108E001F08AFB02463B69D31A022B65
:100E900001D903235BE1264B5B6F03F00203002BB8
:100EA000F0D015E0244B00221A6001F077FB386186
:100EB00008E001F073FB02463B69D31A022B01D90B
:100EC000032344E11A4B5B6F03F00203002BF0D1C4
:100ED0007B681B6803F00403002B00F0A080002354
:100EE000FB75134B1B6C03F08053002B0FD10023B9
:100EF000BB600F4B1B6C0E4A43F0805313640C4BCA
:100F00001B6C03F08053BB60BB680123FB750B4B6C
:100F10001B6803F48073002B21D1084B1B68074A20
:100F200043F48073136001F039FB386111E000BFB6
:100F30000038024000004742800E474200700040E7
:100F400001F02CFB02463B69D31A022B01D9032383
:100F5000FDE0814B1B6803F48073002BF0D07B68AD
:100F60009B68012B06D17D4B1B6F7C4A43F001032C
:100F700013671CE07B689B68052B0CD1774B1B6FBC
:100F8000764A43F004031367744B1B6F734A43F0B4
:100F9000010313670BE0714B1B6F704A23F00103D1
:100FA00013676E4B1B6F6D4A23F0040313677B6856
:100FB0009B68002B15D001F0F1FA38610AE001F0CE
:100FC000EDFA02463B69D31A41F28832934201D9C5
:100FD0000323BCE0614B1B6F03F00203002BEED038
:100FE00014E001F0DBFA38610AE001F0D7FA0246BA
:100FF0003B69D31A41F28832934201D90323A6E018
:10100000564B1B6F03F00203002BEED1FB7D012B2F
:1010100005D1524B1B6C514A23F0805313647B68FB
:101020009B69002B00F092804C4B9B6803F00C03F3
:10103000082B5CD07B689B69022B41D1484B002276
:101040001A6001F0ABFA386108E001F0A7FA024635
:101050003B69D31A022B01D9032378E03F4B1B686D
:1010600003F00073002BF0D17B68DA697B681B6AA0
:101070001A437B685B6A9B011A437B689B6A5B0827
:10108000013B1B041A437B68DB6A1B06334913438D
:101090004B60334B01221A6001F080FA386108E09E
:1010A00001F07CFA02463B69D31A022B01D90323D3
:1010B0004DE02A4B1B6803F00073002BF0D045E095
:1010C000274B00221A6001F069FA386108E001F04C
:1010D00065FA02463B69D31A022B01D9032336E095
:1010E0001E4B1B6803F00073002BF0D12EE07B68D1
:1010F0009B69012B01D1012329E0184B5B68FB6040
:10110000FB6803F480027B68DB699A421CD1FB68B0
:1011100003F03F027B681B6A9A4215D1FA6847F6D2
:10112000C07313407A68526A93420DD1FB6803F48E
:1011300040327B689B6A9A4206D1FB6803F070627A
:101140007B68DB6A9A4201D0012300E00023184645
:101150001837BD4680BD00BF007000400038024017
:101160006000474280B584B000AF786039607B682A
:10117000002B01D10123CCE0684B1B6803F00F0367
:101180003A689A420CD9654B3A68D2B21A70634BEE
:101190001B6803F00F033A689A4201D00123B8E0BC
:1011A0007B681B6803F00203002B20D07B681B6860
:1011B00003F00403002B05D0594B9B68584A43F4B5
:1011C000E05393607B681B6803F00803002B05D095
:1011D000534B9B68524A43F460439360504B9B6867
:1011E00023F0F0027B689B684D4913438B607B685A
:1011F0001B6803F00103002B44D07B685B68012B64
:1012000007D1474B1B6803F40033002B19D101238E
:101210007FE07B685B68022B03D07B685B68032BF5
:1012200007D13F4B1B6803F00073002B09D101234A
:101230006FE03B4B1B6803F00203002B01D101233D
:1012400067E0374B9B6823F003027B685B68344997
:1012500013438B6001F0A2F9F8600AE001F09EF9F7
:101260000246FB68D31A41F28832934201D9032324
:101270004FE02B4B9B6803F00C027B685B689B0084
:101280009A42EBD1254B1B6803F00F033A689A4250
:101290000CD2224B3A68D2B21A70204B1B6803F072
:1012A0000F033A689A4201D0012332E07B681B6841
:1012B00003F00403002B08D0194B9B6823F4E05281
:1012C0007B68DB68164913438B607B681B6803F0FF
:1012D0000803002B09D0124B9B6823F460427B6803
:1012E0001B69DB000E4913438B6000F021F80246B6
:1012F0000B4B9B681B0903F00F030A49CB5C22FAD6
:1013000003F3094A1360094B1B68184601F002F900
:10131000002318461037BD4680BD00BF003C024088
:1013200000380240144000082C0000202400002057
:10133000B0B584B000AF002179600021F9600021D0
:1013400039600021B9605249896801F00C0108290F
:101350000DD0082900F29480002902D0042903D07E
:101360008EE04C4BBB608EE04B4BBB608BE0484942
:10137000496801F03F0179604549496801F48001FD
:10138000002924D042494968890908464FF00001E4
:1013900040F2FF144FF0000500EA040201EA0503E1
:1013A0003D4901FB03F0002101FB02F144183A49D9
:1013B000A2FB0101631819467B681A464FF000032F
:1013C000FEF75EFF02460B461346FB604AE0304BD9
:1013D0005B689B091A464FF0000340F2FF104FF084
:1013E000000102EA000403EA0105204629464FF005
:1013F00000024FF000034B0143EAD0634201104664
:101400001946001B61EB05014FF000024FF000038D
:101410008B0143EA90638201121A63EB01034FF0E0
:1014200000004FF00001D90041EA5271D00002469D
:101430000B46121945EB03034FF000004FF000017B
:10144000990241EA9251900202460B461046194613
:101450007B681A464FF00003FEF712FF02460B4668
:101460001346FB600A4B5B681B0C03F0030301335C
:101470005B003B60FA683B68B2FBF3F3BB6002E0E1
:10148000044BBB6000BFBB6818461037BD46B0BDFB
:10149000003802400024F40040787D0180B400AFA1
:1014A000034B1B681846BD465DF8047B704700BFC0
:1014B0002C00002080B500AFFFF7F0FF0246054B7F
:1014C0009B689B0A03F007030349CB5C22FA03F3F2
:1014D000184680BD003802402440000880B500AFA7
:1014E000FFF7DCFF0246054B9B685B0B03F007032D
:1014F0000349CB5C22FA03F3184680BD0038024052
:101500002440000880B489B000AF786039600023BF
:101510007B6100233B610023BB610023FB616BE126
:101520000122FB6902FA03F37B613B681B687A695D
:1015300013403B613A697B699A4240F05A813B68AB
:101540005B68012B0BD03B685B68022B07D03B68C4
:101550005B68112B03D03B685B68122B30D17B6832
:101560009B68BB61FB695B00032202FA03F3DB4368
:10157000BA691340BB613B68DA68FB695B0002FA39
:1015800003F3BA691343BB617B68BA699A607B68ED
:101590005B68BB610122FB6902FA03F3DB43BA69B2
:1015A0001340BB613B685B681B0903F00102FB69E8
:1015B00002FA03F3BA691343BB617B68BA695A60E4
:1015C0007B68DB68BB61FB695B00032202FA03F303
:1015D000DB43BA691340BB613B689A68FB695B00F7
:1015E00002FA03F3BA691343BB617B68BA69DA6034
:1015F0003B685B68022B03D03B685B68122B23D1EE
:10160000FB69DA087B68083253F82230BB61FB695A
:1016100003F007039B000F2202FA03F3DB43BA69CE
:101620001340BB613B681A69FB6903F007039B0029
:1016300002FA03F3BA691343BB61FB69DA087B68FA
:101640000832B96943F822107B681B68BB61FB69EB
:101650005B00032202FA03F3DB43BA691340BB6168
:101660003B685B6803F00302FB695B0002FA03F36B
:10167000BA691343BB617B68BA691A603B685B68EF
:1016800003F08053002B00F0B4800023FB60604B1C
:101690005B6C5F4A43F4804353645D4B5B6C03F4C3
:1016A0008043FB60FB685B4AFB699B08023352F88E
:1016B0002330BB61FB6903F003039B000F2202FA96
:1016C00003F3DB43BA691340BB617B68524A934220
:1016D0002BD07B68514A934225D07B68504A934275
:1016E0001FD07B684F4A934219D07B684E4A934281
:1016F00013D07B684D4A93420DD07B684C4A93428D
:1017000007D07B684B4A934201D107230EE00823A0
:101710000CE006230AE0052308E0042306E0032387
:1017200004E0022302E0012300E00023FA6902F052
:10173000030292009340BA691343BB613549FB69C8
:101740009B080233BA6941F823203B4B1B68BB61FD
:101750003B69DB43BA691340BB613B685B6803F4D8
:101760008033002B03D0BA693B691343BB61324A13
:10177000BB691360304B5B68BB613B69DB43BA6993
:101780001340BB613B685B6803F40033002B03D05C
:10179000BA693B691343BB61274ABB695360264B57
:1017A0009B68BB613B69DB43BA691340BB613B6823
:1017B0005B6803F48013002B03D0BA693B691343C1
:1017C000BB611D4ABB6993601B4BDB68BB613B6916
:1017D000DB43BA691340BB613B685B6803F40013E9
:1017E000002B03D0BA693B691343BB61124ABB6942
:1017F000D360FB690133FB61FB690F2B7FF690AE71
:1018000000BF00BF2437BD465DF8047B704700BFB2
:10181000003802400038014000000240000402404D
:1018200000080240000C0240001002400014024078
:1018300000180240001C0240003C014080B487B008
:1018400000AF7860396000233B610023FB60002318
:10185000BB6000237B61CDE001227B6902FA03F3C8
:101860003B613A683B691340FB60FA683B699A4206
:1018700040F0BD80654A7B699B08023352F82330F3
:10188000BB607B6903F003039B000F2202FA03F3A2
:10189000BA681340BB607B685D4A93422BD07B687B
:1018A0005C4A934225D07B685B4A93421FD07B6899
:1018B0005A4A934219D07B68594A934213D07B68A5
:1018C000584A93420DD07B68574A934207D07B68B1
:1018D000564A934201D107230EE008230CE0062369
:1018E0000AE0052308E0042306E0032304E00223C2
:1018F00002E0012300E000237A6902F00302920073
:101900009340BA689A4232D1494B1A68FB68DB436C
:10191000474913400B60464B5A68FB68DB43444918
:1019200013404B60424B9A68FB68DB4340491340CD
:101930008B603F4BDA68FB68DB433D491340CB606B
:101940007B6903F003039B000F2202FA03F3BB60E1
:101950002E4A7B699B08023352F82310BB68DA4396
:101960002A487B699B080A40023340F823207B68A1
:101970001A687B695B00032101FA03F3DB431A4019
:101980007B681A607B69DA087B68083253F822109A
:101990007B6903F007039B000F2202FA03F3DB438A
:1019A0007A69D20819407B68083243F822107B68B4
:1019B000DA687B695B00032101FA03F3DB431A4019
:1019C0007B68DA607B685A6801217B6901FA03F35E
:1019D000DB431A407B685A607B689A687B695B00CE
:1019E000032101FA03F3DB431A407B689A607B69A9
:1019F00001337B617B690F2B7FF62EAF00BF00BFE9
:101A00001C37BD465DF8047B704700BF00380140BD
:101A1000000002400004024000080240000C0240A6
:101A2000001002400014024000180240001C024056
:101A3000003C014080B483B000AF78600B467B80EF
:101A400013467B707B78002B03D07A887B689A6181
:101A500003E07B881A047B689A6100BF0C37BD469F
:101A60005DF8047B7047000080B586B000AF7860F9
:101A700000237B6100F092FD38617B68002B01D16F
:101A8000012399E07B68002283F834207B680222DE
:101A900083F835207B681B681A687B681B6822F016
:101AA00001021A600FE000F079FD02463B69D31A8B
:101AB000052B08D97B6820225A657B68032283F8AE
:101AC0003520032378E07B681B681B6803F0010363
:101AD000002BE8D17B681B681B687B617A69384BF7
:101AE00013407B617B685A687B689B681A437B68FC
:101AF000DB681A437B681B691A437B685B691A437E
:101B00007B689B691A437B68DB691A437B681B6AA5
:101B100013437A6913437B617B685B6A042B07D1AB
:101B20007B68DA6A7B681B6B13437A6913437B61BA
:101B30007B681B687A691A607B681B685B697B61DC
:101B40007B6923F007037B617B685B6A7A691343D7
:101B50007B617B685B6A042B17D17B689B6A7A691F
:101B600013437B617B68DB6A002B0ED0786800F042
:101B7000EFFA0346002B08D07B6840225A657B6849
:101B8000012283F83520012316E07B681B687A69FF
:101B90005A61786800F0A6FA0346FB607B68DB6D4B
:101BA0003F229A40FB689A607B6800225A657B68F6
:101BB000012283F83520002318461837BD4680BD22
:101BC0003F8010F080B584B000AF78607B68002B58
:101BD00001D1012350E07B6893F83530DBB2022B52
:101BE00001D1022348E07B681B681A687B681B6888
:101BF00022F001021A607B681B6800221A607B6871
:101C00001B6800225A607B681B6800229A607B6810
:101C10001B680022DA607B681B6800221A617B68FF
:101C20001B6821225A61786800F05CFA0346FB6069
:101C30007B680022DA637B6800221A647B680022DA
:101C40005A647B6800229A647B680022DA647B68AD
:101C500000221A657B68DB6D3F229A40FB689A6020
:101C60007B6800225A657B68002283F835207B68F8
:101C7000002283F83420002318461037BD4680BD6B
:101C800080B586B000AFF860B9607A603B60002331
:101C9000FB75FB689B6D3B61FB6893F83430012B4F
:101CA00001D1022340E0FB68012283F83420FB6865
:101CB00093F83530DBB2012B2FD1FB68022283F879
:101CC0003520FB6800225A653B687A68B968F86875
:101CD00000F0DAF9FB68DB6D3F229A403B699A60BD
:101CE000FB681B681A68FB681B6842F016021A60E2
:101CF000FB681B6C002B07D0FB681B681A68FB682D
:101D00001B6842F008021A60FB681B681A68FB68CF
:101D10001B6842F001021A6005E0FB68002283F8AC
:101D200034200223FB75FB7D18461837BD4680BD65
:101D300080B483B000AF78607B6893F83530DBB255
:101D4000022B04D07B6880225A6501230CE07B685B
:101D5000052283F835207B681B681A687B681B683E
:101D600022F001021A60002318460C37BD465DF8C8
:101D7000047B704780B586B000AF78600023BB60FD
:101D8000924B1B68924AA2FB03239B0A7B617B68F0
:101D90009B6D3B613B691B68FB607B68DB6D0822C8
:101DA0009A40FB681340002B1AD07B681B681B68A5
:101DB00003F00403002B13D07B681B681A687B6850
:101DC0001B6822F004021A607B68DB6D08229A40CF
:101DD0003B699A607B685B6D43F001027B685A65E2
:101DE0007B68DB6D01229A40FB681340002B12D008
:101DF0007B681B685B6903F08003002B0BD07B685A
:101E0000DB6D01229A403B699A607B685B6D43F011
:101E100002027B685A657B68DB6D04229A40FB688E
:101E20001340002B12D07B681B681B6803F0020371
:101E3000002B0BD07B68DB6D04229A403B699A60D3
:101E40007B685B6D43F004027B685A657B68DB6DE1
:101E500010229A40FB681340002B43D07B681B681C
:101E60001B6803F00803002B3CD07B68DB6D10225D
:101E70009A403B699A607B681B681B6803F4802367
:101E8000002B18D07B681B681B6803F40023002B11
:101E900008D17B681B6C002B24D07B681B6C786896
:101EA00098471FE07B689B6C002B1BD07B689B6C6A
:101EB0007868984716E07B681B681B6803F480739A
:101EC000002B07D17B681B681A687B681B6822F0AF
:101ED00008021A607B681B6C002B03D07B681B6CAC
:101EE000786898477B68DB6D20229A40FB68134036
:101EF000002B00F08E807B681B681B6803F01003CA
:101F0000002B00F086807B68DB6D20229A403B69C5
:101F10009A607B6893F83530DBB2052B36D17B684D
:101F20001B681A687B681B6822F016021A607B68BF
:101F30001B685A697B681B6822F080025A617B68C3
:101F40001B6C002B03D17B689B6C002B07D07B683C
:101F50001B681A687B681B6822F008021A607B689D
:101F6000DB6D3F229A403B699A607B68002283F8D0
:101F700034207B68012283F835207B681B6D002BA1
:101F80007DD07B681B6D7868984778E07B681B681C
:101F90001B6803F48023002B1CD07B681B681B6824
:101FA00003F40023002B08D17B685B6C002B30D03E
:101FB0007B685B6C786898472BE07B68DB6B002B59
:101FC00027D07B68DB6B7868984722E02C000020E4
:101FD000B5814E1B7B681B681B6803F48073002B64
:101FE0000FD17B681B681A687B681B6822F010029F
:101FF0001A607B68002283F834207B68012283F812
:1020000035207B68DB6B002B03D07B68DB6B78684B
:1020100098477B685B6D002B32D07B685B6D03F06B
:102020000103002B22D07B68052283F835207B68D2
:102030001B681A687B681B6822F001021A60BB6883
:102040000133BB607A699A4207D37B681B681B68BF
:1020500003F00103002BF2D100E000BF7B680022F7
:1020600083F834207B68012283F835207B68DB6CA1
:10207000002B05D07B68DB6C7868984700E000BFD8
:102080001837BD4680BD00BF80B485B000AFF86092
:10209000B9607A603B60FB681B681A68FB681B6864
:1020A00022F480221A60FB681B683A685A60FB6859
:1020B0009B68402B08D1FB681B687A689A60FB68B4
:1020C0001B68BA68DA6007E0FB681B68BA689A6048
:1020D000FB681B687A68DA6000BF1437BD465DF89C
:1020E000047B704780B485B000AF78607B681B6864
:1020F000DBB2103B144AA2FB03231B09FB60134A0B
:10210000FB6813441B781A467B68DA65FB68032B6F
:1021100009D97B681B6823F47F7323F003031A1D1E
:102120007B689A6507E07B681B6823F47F7323F064
:1021300003037A6893657B689B6D18461437BD4628
:102140005DF8047B704700BFABAAAAAA0C40000848
:1021500080B485B000AF78600023FB737B689B6A16
:10216000BB607B689B69002B1FD1BB68032B56D8D3
:1021700001A252F823F000BF892100089B2100082A
:10218000892100081F2200087B68DB6A03F0807346
:10219000002B46D00123FB7343E07B68DB6AB3F17D
:1021A000C07F40D10123FB733DE07B689B69B3F5A1
:1021B000005F21D1BB68032B37D801A252F823F06E
:1021C000D1210008D7210008D1210008E921000809
:1021D0000123FB7330E07B68DB6A03F08073002B24
:1021E00025D00123FB7322E07B68DB6AB3F1C07F5B
:1021F0001FD10123FB731CE0BB68022B03D9BB6812
:10220000032B03D018E00123FB7315E07B68DB6A26
:1022100003F08073002B0ED00123FB730BE000BF93
:102220000AE000BF08E000BF06E000BF04E000BF16
:1022300002E000BF00E000BFFB7B18461437BD463C
:102240005DF8047B704700BF80B485B000AF786054
:102250007B6803F00703FB600C4BDB68BB60BA686C
:102260004FF6FF031340BB60FB681A02BB681343C1
:1022700043F0BF6343F40033BB60044ABB68D360E0
:1022800000BF1437BD465DF8047B704700ED00E0E9
:1022900080B400AF044BDB681B0A03F00703184649
:1022A000BD465DF8047B704700ED00E080B483B06C
:1022B00000AF0346FB7197F90730002B0BDBFB796E
:1022C00003F01F02074997F907305B09012000FA64
:1022D00002F241F8232000BF0C37BD465DF8047BB5
:1022E000704700BF00E100E080B483B000AF034658
:1022F000FB7197F90730002B12DBFB7903F01F020B
:102300000A4997F907305B09012000FA02F22033ED
:1023100041F82320BFF34F8F00BFBFF36F8F00BF83
:1023200000BF0C37BD465DF8047B704700E100E05C
:1023300080B483B000AF03463960FB7197F9073072
:10234000002B0ADB3B68DAB20C4997F9073012011F
:10235000D2B20B4483F800230AE03B68DAB20849A2
:10236000FB7903F00F03043B1201D2B20B441A763F
:1023700000BF0C37BD465DF8047B704700E100E00C
:1023800000ED00E080B489B000AFF860B9607A6019
:10239000FB6803F00703FB61FB69C3F10703042B30
:1023A00028BF0423BB61FB690433062B02D9FB69F8
:1023B000033B00E000237B614FF0FF32BB6902FA70
:1023C00003F3DA43BB681A407B699A404FF0FF3150
:1023D0007B6901FA03F3D9437B680B40134318462A
:1023E0002437BD465DF8047B7047000080B582B09D
:1023F00000AF78607B68013BB3F1807F01D301239C
:102400000FE00A4A7B68013B53600F214FF0FF3019
:10241000FFF78EFF054B00229A60044B07221A60DB
:10242000002318460837BD4680BD00BF10E000E01D
:1024300080B582B000AF78607868FFF705FF00BF15
:102440000837BD4680BD80B586B000AF0346B96091
:102450007A60FB7300237B61FFF71AFF78617A686B
:10246000B9687869FFF78EFF024697F90F30114679
:102470001846FFF75DFF00BF1837BD4680BD80B529
:1024800082B000AF0346FB7197F907301846FFF79B
:102490000DFF00BF0837BD4680BD80B582B000AFDC
:1024A0000346FB7197F907301846FFF71DFF00BF81
:1024B0000837BD4680BD80B582B000AF78607868CF
:1024C000FFF794FF034618460837BD4680BD00005D
:1024D00080B500AF0E4B1B680D4A43F400731360C8
:1024E0000B4B1B680A4A43F480631360084B1B685C
:1024F000074A43F4807313600320FFF799FF00201D
:1025000000F008F8FEF7B4FA0023184680BD00BFBB
:10251000003C024080B582B000AF7860124B1A6870
:10252000124B1B7819464FF47A73B3FBF1F3B2FBED
:10253000F3F31846FFF7BFFF0346002B01D001233A
:102540000EE07B680F2B0AD8002279684FF0FF302D
:10255000FFF779FF064A7B681360002300E0012340
:1025600018460837BD4680BD2C00002028000020FA
:102570002400002080B400AF064B1B781A46064B9F
:102580001B681344044A136000BFBD465DF8047B1A
:10259000704700BF280000204404002080B400AF32
:1025A000034B1B681846BD465DF8047B704700BFAF
:1025B0004404002080B400AF084BD3F88830074AA9
:1025C00043F47003C2F88830044B4FF000629A6005
:1025D00000BFBD465DF8047B704700BF00ED00E022
:1025E00080B582B000AF78607B68002B01D10123F9
:1025F0003FE07B6893F83930DBB2002B06D17B6873
:10260000002283F838207868FEF75AFA7B68242283
:1026100083F839207B681B68DA687B681B6822F4C2
:102620000052DA60786800F079FC7B681B681A69F0
:102630007B681B6822F490421A617B681B685A69A8
:102640007B681B6822F02A025A617B681B68DA6883
:102650007B681B6842F40052DA607B680022DA6310
:102660007B68202283F839207B68202283F83A2077
:10267000002318460837BD4680BD80B582B000AF44
:1026800078607B68002B01D101231EE07B68242247
:1026900083F839207B681B68DA687B681B6822F442
:1026A0000052DA607868FEF7C1FA7B680022DA63CC
:1026B0007B68002283F839207B68002283F83A2067
:1026C0007B68002283F83820002318460837BD466F
:1026D00080BD80B588B002AFF860B9603B6013463A
:1026E000FB8000237B61FB6893F83930DBB2202B41
:1026F00040F08380BB68002B02D0FB88002B01D107
:1027000001237BE0FB6893F83830012B01D10223D1
:1027100074E0FB68012283F83820FB680022DA634A
:10272000FB68212283F83920FFF738FF7861FB68C6
:10273000FA889A84FB68FA88DA84FB68002283F8B6
:10274000382042E0FB68DB8C9BB2013B9AB2FB680D
:10275000DA84FB689B68B3F5805F22D13B68009305
:102760007B6900228021F86800F057FA0346002BAD
:1027700001D0032342E0BB683B613B691B881A46DA
:10278000FB681B68C2F308025A60FB681B69002BD8
:1027900003D1BB680233BB6017E0BB680133BB6089
:1027A00013E03B6800937B6900228021F86800F009
:1027B00034FA0346002B01D003231FE0BB685A1CE8
:1027C000BA601A78FB681B685A60FB68DB8C9BB2A6
:1027D000002BB7D13B6800937B6900224021F86849
:1027E00000F01BFA0346002B01D0032306E0FB6830
:1027F000202283F83920002300E0022318461837EE
:10280000BD4680BD80B586B000AFF860B9601346A4
:10281000FB80FB6893F83930DBB2202B53D1BB68C7
:10282000002B02D0FB88002B01D101234CE0FB6878
:1028300093F83830012B01D1022345E0FB680122D7
:1028400083F83820BA68FB681A62FB68FA889A84B1
:10285000FB68FA88DA84FB680022DA63FB682122CD
:1028600083F83920FB681B6B194ADA63FB681B6B22
:10287000184A1A64FB681B6B174ADA64FB681B6B07
:1028800000221A6507F108037B61FB68186B7B69FE
:102890001968FB681B6804331A46FB88FFF7F0F9D8
:1028A000FB681B686FF040021A60FB68002283F827
:1028B0003820FB681B685A69FB681B6842F080027D
:1028C0005A61002300E0022318461837BD4680BD38
:1028D000192B00086B2B0008872B000880B588B0E7
:1028E00000AF78607B681B681B68FB617B681B68B6
:1028F000DB68BB617B681B685B697B6100233B61B4
:102900000023FB60FB6903F00F033B613B69002B75
:102910000DD1FB6903F02003002B08D0BB6903F045
:102920002003002B03D0786800F077FAD0E03B69F1
:10293000002B00F0B0807B6903F00103002B05D170
:10294000BB6903F49073002B00F0A580FB6903F0D2
:102950000103002B0AD0BB6903F48073002B05D060
:102960007B68DB6B43F001027B68DA63FB6903F091
:102970000403002B0AD07B6903F00103002B05D070
:102980007B68DB6B43F002027B68DA63FB6903F070
:102990000203002B0AD07B6903F00103002B05D052
:1029A0007B68DB6B43F004027B68DA63FB6903F04E
:1029B0000803002B0FD0BB6903F02003002B04D1C8
:1029C0007B6903F00103002B05D07B68DB6B43F0D0
:1029D00008027B68DA637B68DB6B002B77D0FB69CE
:1029E00003F02003002B07D0BB6903F02003002B6A
:1029F00002D0786800F011FA7B681B685B6903F00D
:102A00004003402B0CBF01230023DBB2FB607B683B
:102A1000DB6B03F00803002B02D1FB68002B31D0E5
:102A2000786800F05AF97B681B685B6903F0400323
:102A3000402B23D17B681B685A697B681B6822F096
:102A400040025A617B685B6B002B13D07B685B6B29
:102A5000214A1A657B685B6B1846FFF769F90346E4
:102A6000002B16D07B685B6B1B6D7A68526B10462F
:102A700098470EE0786800F045F80AE0786800F0C2
:102A800041F806E0786800F03DF87B680022DA63E0
:102A90001DE000BF1BE0FB6903F08003002B08D0A2
:102AA000BB6903F08003002B03D0786800F047F97E
:102AB0000EE0FB6903F04003002B09D0BB6903F073
:102AC0004003002B04D0786800F08FF900E000BFCD
:102AD0002037BD4680BD00BF172D000880B483B0ED
:102AE00000AF786000BF0C37BD465DF8047B7047CF
:102AF00080B483B000AF786000BF0C37BD465DF88E
:102B0000047B704780B483B000AF786000BF0C379F
:102B1000BD465DF8047B704780B584B000AF786037
:102B20007B689B6BFB607B681B681B6803F480738E
:102B3000002B13D1FB680022DA84FB681B685A69FA
:102B4000FB681B6822F080025A61FB681B68DA6828
:102B5000FB681B6842F04002DA6002E0F868FDF7AB
:102B600079FD00BF1037BD4680BD80B584B000AF91
:102B700078607B689B6BFB60F868FFF7AFFF00BF76
:102B80001037BD4680BD80B584B000AF78600023AB
:102B9000FB607B689B6BBB60BB681B685B6903F079
:102BA0008003802B0CBF01230023DBB2FB60BB68DA
:102BB00093F83930DBB2212B08D1FB68002B05D00C
:102BC000BB680022DA84B86800F071F8BB681B6843
:102BD0005B6903F04003402B0CBF01230023DBB2F1
:102BE000FB60BB6893F83A30DBB2222B08D1FB685C
:102BF000002B05D0BB680022DA85B86800F06DF8BC
:102C0000BB68DB6B43F01002BB68DA63B868FFF7A0
:102C100079FF00BF1037BD4680BD80B584B000AFDE
:102C2000F860B9603B601346FB712CE0BB69B3F1FF
:102C3000FF3F28D0BB69002B07D0FFF7AFFC02464F
:102C40003B68D31ABA699A421DD2FB681B68DA68DE
:102C5000FB681B6822F4D072DA60FB681B685A6953
:102C6000FB681B6822F001025A61FB68202283F88E
:102C70003920FB68202283F83A20FB68002283F881
:102C8000382003230FE0FB681B681A68BB681340F9
:102C9000BA689A420CBF01230023DBB21A46FB79C3
:102CA0009A42C3D0002318461037BD4680BD80B479
:102CB00083B000AF78607B681B68DA687B681B684C
:102CC00022F0C002DA607B68202283F8392000BF3E
:102CD0000C37BD465DF8047B704780B483B000AF0D
:102CE00078607B681B68DA687B681B6822F49072E6
:102CF000DA607B681B685A697B681B6822F00102F6
:102D00005A617B68202283F83A2000BF0C37BD4609
:102D10005DF8047B704780B584B000AF78607B6855
:102D20009B6BFB60FB680022DA85FB680022DA847B
:102D3000F868FFF7E7FE00BF1037BD4680BD80B4DE
:102D400085B000AF78607B6893F83930DBB2212B17
:102D500044D17B689B68B3F5805F1AD17B681B6A9E
:102D6000FB60FB681B881A467B681B68C2F308027D
:102D70005A607B681B69002B05D17B681B6A9A1C13
:102D80007B681A620EE07B681B6A5A1C7B681A62B9
:102D900008E07B681B6A591C7A6811621A787B68A4
:102DA0001B685A607B68DB8C9BB2013B9BB27A68E4
:102DB0001946D184002B0FD17B681B68DA687B68C9
:102DC0001B6822F08002DA607B681B68DA687B6827
:102DD0001B6842F04002DA60002300E0022318463C
:102DE0001437BD465DF8047B704780B582B000AFF4
:102DF00078607B681B68DA687B681B6822F0400299
:102E0000DA607B68202283F839207868FDF722FC9D
:102E1000002318460837BD4680BD80B584B000AF9A
:102E200078607B6893F83A30DBB2222B71D17B68F3
:102E30009B68B3F5805F23D17B689B6AFB607B68EE
:102E40001B69002B0ED17B681B685B689BB2C3F3C8
:102E500008039AB2FB681A807B689B6A9A1C7B689D
:102E60009A6229E07B681B685B689BB2DBB29AB20E
:102E7000FB681A807B689B6A5A1C7B689A621BE01D
:102E80007B681B69002B0AD17B681B6858687B68CC
:102E90009B6A591C7A689162C2B21A700CE07B6816
:102EA0001B685B68DAB27B689B6A581C7968886229
:102EB00002F07F02D2B21A707B68DB8D9BB2013BBD
:102EC0009BB27A681946D185002B20D17B681B689C
:102ED000DA687B681B6822F02002DA607B681B6876
:102EE000DA687B681B6822F48072DA607B681B6892
:102EF0005A697B681B6822F001025A617B682022B4
:102F000083F83A207868FFF7F3FD002302E00023FE
:102F100000E0022318461037BD4680BD2DE9F04F72
:102F2000BDB000AFC7F8E400D7F8E4301B681B69F8
:102F300023F44050D7F8E430D968D7F8E4301A6861
:102F400040EA01031361D7F8E4309A68D7F8E43017
:102F50001B691A43D7F8E4305B691A43D7F8E430A9
:102F6000DB691343C7F8EC30D7F8E4301B68DB6843
:102F700023F4164121F00C01D7F8E4301A68D7F891
:102F8000EC300B43D360D7F8E4301B685B6923F463
:102F90004070D7F8E4309969D7F8E4301A6840EA0D
:102FA00001035361D7F8E430DB69B3F5004F40F01B
:102FB000A581D7F8E4301A68CD4B9A4206D0D7F8ED
:102FC000E4301A68CB4B9A4240F0CB80FEF786FA89
:102FD000C7F8E800D7F8E8301C464FF00005224655
:102FE0002B469118C7F888105B41C7F88C30D7E999
:102FF0002223121945EB03034FF000004FF00001AC
:10300000D90041EA5271D00002460B461119C7F8A7
:10301000D8106B41C7F8DC30D7F8E4305B681A464B
:103020004FF000039118C7F880105B41C7F8843057
:10303000D7E92023D7E93601FDF722F902460B46EE
:10304000AD4BA3FB02235B091E01D7F8E8301C46F9
:103050004FF0000522462B469118B9675B41FB678C
:10306000D7E91E23121945EB03034FF000004FF080
:103070000001D90041EA5271D00002460B461119F5
:10308000C7F8D0106B41C7F8D430D7F8E4305B688C
:103090001A464FF00003911839675B417B67D7E907
:1030A0001C23D7E93401FDF7EBF802460B46924B9F
:1030B000A3FB02135B09642101FB03F3D31ADB00BA
:1030C00032338D4AA2FB03235B095B0003F4F873E0
:1030D0001E44D7F8E83018464FF0000102460B4670
:1030E0009418BC665B41FB66D7E91A23121841EBC2
:1030F00003034FF000044FF00005DD0045EA527570
:10310000D40022462B461418C7F8C8404B41C7F8D4
:10311000CC30D7F8E4305B681A464FF000039118C2
:1031200039665B417B66D7E91823D7E93201FDF7A1
:10313000A7F802460B46704BA3FB02135B09642100
:1031400001FB03F3D31ADB0032336B4AA2FB0323E8
:103150005B0903F00702D7F8E4301B6832449A6039
:103160006DE2FEF7A7F9C7F8E800D7F8E8301C468B
:103170004FF0000522462B469118B9655B41FB656F
:10318000D7E91623121945EB03034FF000004FF067
:103190000001D90041EA5271D00002460B461119D4
:1031A000C7F8C0106B41C7F8C430D7F8E4305B688B
:1031B0001A464FF00003911839655B417B65D7E9EA
:1031C0001423D7E93001FDF75BF802460B464A4B62
:1031D000A3FB02235B091E01D7F8E8301C464FF021
:1031E000000522462B469118B9645B41FB64D7E980
:1031F0001223121945EB03034FF000004FF00001BA
:10320000D90041EA5271D00002460B461119C7F8A5
:10321000B8106B41C7F8BC30D7F8E4305B681A4689
:103220004FF00003911839645B417B64D7E91023A8
:10323000D7E92E01FDF724F802460B462E4BA3FBDF
:1032400002135B09642101FB03F3D31ADB00323361
:10325000294AA2FB03235B095B0003F4F8731E44B5
:10326000D7F8E83018464FF0000102460B46941894
:10327000BC635B41FB63D7E90E23121841EB0303E8
:103280004FF000044FF00005DD0045EA5275D40010
:1032900022462B461418C7F8B0404B41C7F8B4304B
:1032A000D7F8E4305B681A464FF000039118396391
:1032B0005B417B63D7E90C23D7E92C01FCF7E0FFE6
:1032C00002460B460C4BA3FB02135B09642101FB76
:1032D00003F3D31ADB003233074AA2FB03235B0953
:1032E00003F00702D7F8E4301B6832449A60A6E185
:1032F00000100140001401401F85EB51D7F8E43065
:103300001A68D14B9A4206D0D7F8E4301A68CF4BEE
:103310009A4240F0CA80FEF7E1F8C7F8E800D7F813
:10332000E8301C464FF0000522462B469118B96242
:103330005B41FB62D7E90A23121945EB03034FF007
:1033400000004FF00001D90041EA5271D00002465E
:103350000B4612EB040A43EB050BD7F8E4305B682D
:1033600018464FF000014FF000024FF000038B00B1
:1033700043EA9073820050465946FCF781FF0246AB
:103380000B46B34BA3FB02235B091E01D7F8E830C1
:1033900018464FF0000102460B4694183C625B4110
:1033A0007B62D7E90823121841EB03034FF00004B6
:1033B0004FF00005DD0045EA5275D40022462B4649
:1033C0001418C7F8A8404B41C7F8AC30D7F8E43020
:1033D0005B6818464FF000014FF000024FF0000309
:1033E0008B0043EA90738200D7E92A01FCF748FF7B
:1033F00002460B46964BA3FB02135B09642101FBBB
:1034000003F3D31A1B013233914AA2FB03235B0956
:1034100003F0F0031E44D7F8E83018464FF00001DF
:1034200002460B469418BC615B41FB61D7E9062359
:10343000121841EB03034FF000044FF00005DD00CC
:1034400045EA5275D40022462B461418C7F8A0400E
:103450004B41C7F8A430D7F8E4305B6818464FF00A
:1034600000014FF000024FF000038B0043EA90731D
:103470008200D7E92801FCF703FF02460B46744B94
:10348000A3FB02135B09642101FB03F3D31A1B01A5
:1034900032336F4AA2FB03235B0903F00F02D7F814
:1034A000E4301B6832449A60C9E0FEF703F8C7F8BD
:1034B000E800D7F8E8301C464FF0000522462B46BE
:1034C000911839615B417B61D7E90423121945EBFF
:1034D00003034FF000004FF00001D90041EA5271A0
:1034E000D00002460B4612EB040843EB0509D7F85F
:1034F000E4305B6818464FF000014FF000024FF0D7
:1035000000038B0043EA9073820040464946FCF773
:10351000B7FE02460B464E4BA3FB02235B091E017E
:10352000D7F8E83018464FF0000102460B469418D1
:10353000BC605B41FB60D7E90223121841EB030337
:103540004FF000044FF00005DD0045EA5275D4004D
:1035500022462B461418C7F898404B41C7F89C30B8
:10356000D7F8E4305B6818464FF000014FF00002D6
:103570004FF000038B0043EA90738200D7E92601E5
:10358000FCF77EFE02460B46314BA3FB02135B09A0
:10359000642101FB03F3D31A1B0132332C4AA2FB33
:1035A00003235B0903F0F0031E44D7F8E830184604
:1035B0004FF0000102460B4694183C605B417B6073
:1035C000D7E90023121841EB03034FF000044FF03A
:1035D0000005DD0045EA5275D40022462B4614183A
:1035E000C7F890404B41C7F89430D7F8E4305B6897
:1035F00018464FF000014FF000024FF000038B001F
:1036000043EA90738200D7E92401FCF739FE0246B1
:103610000B460F4BA3FB02135B09642101FB03F371
:10362000D31A1B0132330A4AA2FB03235B0903F0BE
:103630000F02D7F8E4301B6832449A60FFE700BFFE
:10364000F437BD46BDE8F08F001001400014014082
:103650001F85EB51DFF834D0002103E00C4B5B58A1
:10366000435004310B480C4B42189A42F6D30B4A94
:1036700002E0002342F8043B094B9A42F9D3FEF7DB
:1036800099FF00F011F8FDF7ADF870470000022037
:1036900070400008000000209400002094000020EA
:1036A00058040020FEE7000070B50D4D0D4C641B62
:1036B000A4100026A64209D10B4D0C4C00F098FC3A
:1036C000641BA4100026A64205D170BD55F8043B2A
:1036D00098470136EEE755F8043B98470136F2E784
:1036E0006840000868400008684000086C40000816
:1036F00002440346934200D1704703F8011BF9E7E7
:10370000134B10B51C68A36B7BB9182000F04CF864
:10371000104A114BA063C0E90023104B83600B23B8
:10372000838101220023C0E90423A16B0C480A69AC
:103730004B690C4C504304FB0300A2FB04345A1C9D
:10374000044444F10000C1E9042020F0004010BD11
:10375000300000200E33CDAB34126DE6ECDE0500F8
:103760002DF451582D7F954C0EB400B59CB01DAB77
:10377000029006906FF000410948079104910949B1
:1037800053F8042B05910068019302A900F01AF97F
:10379000029B00221A701CB05DF804EB03B0704766
:1037A000300000200802FFFF024B0146186800F0BD
:1037B00053B800BF3000002037B5002948D051F879
:1037C000043C0190002BA1F10404B8BFE41800F000
:1037D000C5FB204A01981368154633B9636014602D
:1037E00003B0BDE8304000F0BFBBA3420BD9216855
:1037F0006218934204BF1A685B68636004BF521882
:1038000022602C60ECE71A465B680BB1A342FAD940
:1038100011685518A5420BD1246821445418A342BD
:103820001160DDD11C685B68536021441160D7E7EB
:1038300002D90C230360D3E7256861198B4204BFCA
:1038400019685B68636004BF491921605460C7E769
:1038500003B030BD38030020F8B5CD1C25F00305BA
:1038600008350C2D38BF0C25002D064601DBA9427A
:1038700003D90C2333600020F8BD00F06FFB214911
:103880000A6814469CB9204F3B6823B9214630464C
:1038900000F02CFB38602946304600F027FB431C23
:1038A00023D10C233360304600F05EFBE3E723684E
:1038B0005B1B17D40B2B03D923601C44256004E049
:1038C0006368A2420CBF0B605360304600F04CFBB3
:1038D00004F10B00231D20F00700C21ACCD01B1AE4
:1038E000A350C9E722466468CCE7C41C24F0030453
:1038F000A042E3D0211A304600F0F8FA0130DDD1C1
:10390000CFE700BF380300203C0300202DE9F0473B
:103910008E689E4282460C4690461F4638D88A8959
:1039200012F4906F32D025680969A5EB0109656929
:1039300005EB450505EBD57501334B446D109D42F4
:1039400038BF1D46530531D52946FFF785FF06468A
:1039500050B90C23CAF80030A38943F04003A38177
:103960004FF0FF30BDE8F08721694A4600F0CEFAFB
:10397000A38923F4906343F08003A38126616561EA
:103980004E44A5EB09052660A5603E46BE4200D91F
:103990003E4632462068414600F0C6FAA3682268D7
:1039A0009B1B3244A36022600020DBE72A4600F024
:1039B000E1FA06460028E1D121695046FFF7FCFEF6
:1039C000C7E700002DE9F04F98468B891B069DB094
:1039D00007460D4614460ED50B6963B94021FFF723
:1039E0003BFF2860286120B90C233B604FF0FF307B
:1039F000D1E040236B610023099320238DF8293007
:103A0000CDF80C803023DFF8A8818DF82A304FF0F4
:103A1000010923469A4613F8012B0AB1252AF9D148
:103A2000BAEB040B0BD05B46224629463846FFF71B
:103A30006DFF013000F0AA80099A5A4409929AF861
:103A40000030002B00F0A28000234FF0FF32CDE9C0
:103A500005230AF1010A049307938DF853301A9352
:103A60005446052214F8011B5148FCF7B9FB049A8F
:103A7000D8B9D00644BF20238DF85330110744BF76
:103A80002B238DF853309AF800302A2B15D0079A43
:103A9000544600204FF00A0C214611F8013B303B00
:103AA000092B4ED9B0B1079214E0A0EB080309FA34
:103AB00003F313430493A246D2E7039B191D1B682B
:103AC0000391002BBBBF5B4242F0020207930793B6
:103AD000B8BF049223782E2B0CD163782A2B35D1D2
:103AE000039B1A1D1B680392002BB8BF4FF0FF33D6
:103AF00002340593DFF8C8A0217803225046FCF772
:103B00006FFB40B14023A0EB0A0003FA00F0049BD6
:103B100003430134049314F8011B26488DF8281040
:103B20000622FCF75DFB002838D0234B1BBB039B10
:103B3000073323F0070308330393099B33440993A6
:103B400067E70CFB02320C460120A5E70023013495
:103B5000059319464FF00A0C204610F8012B303A15
:103B6000092A03D9002BC5D00591C3E70CFB01211D
:103B700004460123F0E703AB00932A460F4B04A948
:103B80003846AFF30080421C0646D6D1AB895B06AF
:103B90003FF52CAF09981DB0BDE8F08F03AB009343
:103BA0002A46064B04A9384600F07AF8EBE700BF36
:103BB0002C40000836400008000000000D390008C5
:103BC000324000082DE9F047164699468A680B698D
:103BD000DDF820809342B8BF1346336091F843204C
:103BE00007460C460AB1013333602368990642BF89
:103BF000336802333360256815F0060506D104F1F9
:103C0000190AE36832689B1AAB4226DC94F8432019
:103C1000131E226818BF012392062BD404F143021D
:103C200049463846C04701301ED02368E5683268EF
:103C300003F00603042B08BFAD1AA36822690CBF6A
:103C400025EAE57500259342C4BF9B1AED180026AE
:103C50001A34B5421AD1002008E0012352464946E1
:103C60003846C047013003D14FF0FF30BDE8F08740
:103C70000135C6E7E1185A1C302081F84300224480
:103C800094F8451082F843100233C7E70123224617
:103C900049463846C0470130E6D00136D9E7000032
:103CA0002DE9FF470C469146277E0C99782F8046D8
:103CB0009A4604F1430207D8622F0AD8002F00F079
:103CC000D880582F00F0A38004F1420684F8427097
:103CD0003AE0A7F16303152BF6D801A050F823F0C2
:103CE000393D00084D3D0008C93C0008C93C0008AA
:103CF000C93C0008C93C00084D3D0008C93C00080B
:103D0000C93C0008C93C0008C93C0008593E0008ED
:103D10007D3D00083B3E0008C93C0008C93C000846
:103D20007B3E0008C93C00087D3D0008C93C0008F6
:103D3000C93C0008433E00080B681A1D1B680A6056
:103D400004F1420684F842300123A3E025680868A4
:103D50002E0600F104030AD505680B60002D03DA76
:103D60002D236D4284F843305E480A2319E015F094
:103D7000400F05680B6018BF2DB2EFE70B68256890
:103D8000181D0860280601D51D6802E06906FBD5EC
:103D90001D8854486F2F0CBF08230A23002184F884
:103DA00043106668A660002EA2BF216821F00401BE
:103DB00021600DB9002E4DD01646B5FBF3F103FB83
:103DC0001157C75D06F8017D2F46BB420D46F4D959
:103DD000082B0BD12368DF0708D523696168994256
:103DE000DEBF302306F8013C06F1FF36921B22614C
:103DF000CDF800A04B4603AA21464046FFF7E2FE5D
:103E000001304CD14FF0FF3004B0BDE8F0873548A9
:103E100084F8457023680E681F0656F8045B0E6030
:103E200014D5D90744BF43F0200323601DB923688C
:103E300023F0200323601023B0E7236843F020031E
:103E400023607823284884F84530E3E75E0648BFBE
:103E5000ADB2E6E71646BBE70B68266860691D1D34
:103E60000D6035061B6801D5186002E07106FBD5B0
:103E70001880002323611646BAE70B681A1D0A60F2
:103E80001E68626800213046FCF7AAF908B1801B61
:103E9000606063682361002384F84330A8E72369E6
:103EA000324649464046D0470130ABD023689B0795
:103EB00013D4E068039B9842B8BF1846A4E70123D7
:103EC000324649464046D04701309BD00135E36831
:103ED00003995B1AAB42F2DCEBE7002504F119060B
:103EE000F5E700BF3D4000084E40000838B5064DDC
:103EF0000023044608462B6000F06CF8431C02D1F6
:103F00002B6803B1236038BD480400200A44914265
:103F100000F1FF3300D1704710B511F8014B03F8E1
:103F2000014F9142F9D110BD884210B501EB020456
:103F300002D98442234607D8431EA14208D011F873
:103F4000012B03F8012FF8E7024401468A4200D111
:103F500010BD13F8014D02F8014DF7E7014800F0DC
:103F60002FB800BF50040020014800F02AB800BF5D
:103F700050040020F8B5074614460E4621B9BDE8A6
:103F8000F8401146FFF768BC22B9FFF715FC25463B
:103F90002846F8BD00F016F8A0420FD22146384658
:103FA000FFF75AFC05460028F2D031462246FFF7BB
:103FB000ADFF31463846FFF7FFFBE9E73546E7E757
:103FC0007047704751F8043C181F002BBCBF0B58BA
:103FD000C0187047044A05491368002B08BF0B46F8
:103FE0001844106018467047400300205804002011
:103FF000F8B500BFF8BC08BC9E467047F8B500BFD6
:08400000F8BC08BC9E467047A5
:1040080025647C000006101600061016000000004B
:104018000000000001020304060708090000000070
:1040280001020304232D302B2000686C4C006566C8
:1040380067454647003031323334353637383941F1
:104048004243444546003031323334353637383907
:0840580061626364656600000B
:0840600050C2FF7F01000000C7
:04406800B501000896
:04406C0091010008B6
:10407000C012000080250000004B000000960000E8
:1040800000E1000000C201000084030000080700F6
:1040900000100E0010000000010000000024F400D9
:1040A00034000020000000000000000000000000BC
:1040B0000000000000000000000000000000000000
:1040C00000000000000000000000000000000000F0
:1040D00000000000000000000000000000000000E0
:1040E00000000000000000000000000000000000D0
:1040F00000000000000000000000000000000000C0
:0441000000000000BB
:040000050800365564
:00000001FF
