:020000040800F2
:10000000000002200D3700084F0600085D060008BA
:1000100063060008690600086F060008000000007B
:10002000000000000000000000000000750600084D
:100030008306000800000000910600089F060008E3
:100040005D3700085D3700085D3700085D37000840
:100050005D3700085D3700085D3700085D37000830
:100060005D3700085D3700085D3700085D37000820
:100070005D3700085D3700085D3700085D37000810
:100080005D3700085D3700085D3700085D37000800
:100090005D3700085D3700085D3700085D370008F0
:1000A0005D3700085D3700085D3700085D370008E0
:1000B0005D3700085D3700085D3700085D370008D0
:1000C0005D3700085D3700085D3700085D370008C0
:1000D0005D370008F93600085D3700085D37000815
:1000E0005D3700085D3700085D3700085D370008A0
:1000F0005D3700085D3700085D3700085D37000890
:100100005D3700085D3700085D3700085D3700087F
:100110005D3700085D3700085D3700085D3700086F
:100120005D3700085D3700085D3700085D3700085F
:100130005D3700085D3700085D3700085D3700084F
:100140005D3700085D3700085D3700085D3700083F
:100150005D3700085D3700085D3700085D3700082F
:100160005D3700085D3700085D3700085D3700081F
:100170005D3700085D3700085D37000800000000AB
:080180005D3700085D3700083F
:1001880010B5054C237833B9044B13B10448AFF3C9
:1001980000800123237010BD100000200000000023
:1001A800B837000808B5034B1BB103490348AFF340
:1001B800008008BD0000000014000020B8370008C7
:1001C80053B94AB9002908BF00281CBF4FF0FF31B6
:1001D8004FF0FF3000F06EB9ADF1080C6DE904CEB8
:1001E80000F006F8DDF804E0DDE9022304B070470A
:1001F8002DE9F047089D04468C46002B40F083808B
:100208008A42174647D9B2FA82F242B1C2F12000B7
:1002180024FA00F09140974040EA010C94404FEADC
:100228001748230CBCFBF8F61FFA87FE08FB16C11B
:1002380043EA014306FB0EF1994209D9FB1806F17E
:10024800FF3080F01981994240F21681023E3B440A
:100258005B1AA4B2B3FBF8F008FB103344EA03447A
:1002680000FB0EFEA64509D93C1900F1FF3380F0CA
:100278000581A64540F2028102383C4440EA064026
:10028800A4EB0E0400261DB1D4400023C5E90043A9
:100298003146BDE8F08702B9FFDEB2FA82F2002AE1
:1002A80050D1CB1B4FEA174E1FFA87F80126B3FB34
:1002B800FEFC210C0EFB1C3341EA034108FB0CF346
:1002C8008B4207D979180CF1FF3002D28B4200F229
:1002D800E9808446C91AA3B2B1FBFEF00EFB1011E7
:1002E80043EA014408FB00F8A04507D93C1900F18E
:1002F800FF3302D2A04500F2D9801846A4EB0804C7
:1003080040EA0C40BFE78B4209D9002D00F0B180CC
:100318000026C5E9000130463146BDE8F087B3FA4A
:1003280083F6002E4AD18B4202D3824200F2B88073
:10033800841A61EB030101208C46002DA8D0C5E981
:10034800004CA5E7C2F1200320FA03F6974001FA12
:1003580002F04FEA174ED9403043030CB1FBFEF6CA
:100368001FFA87F80EFB161143EA014306FB08F152
:10037800994204FA02F409D9FB1806F1FF3C80F00F
:100388008D80994240F28A80023E3B445B1A81B2DA
:10039800B3FBFEF00EFB103341EA034100FB08F308
:1003A8008B4207D9791800F1FF3C73D28B4271D97F
:1003B80002383944CB1A40EA064678E7C6F1200CE1
:1003C80003FA06F422FA0CF31C4320FA0CF701FA9C
:1003D80006F34FEA144E21FA0CF11F433B0CB1FB14
:1003E800FEF91FFA84F80EFB191143EA014109FBD3
:1003F80008FA8A4502FA06F200FA06F308D96118E3
:1004080009F1FF3048D28A4546D9A9F102092144A9
:10041800A1EB0A01BFB2B1FBFEF00EFB101147EAD7
:10042800014700FB08F8B84507D9E71900F1FF3183
:100438002ED2B8452CD90238274440EA0940A7EB08
:100448000807A0FB02894F45C64649461AD317D06C
:100458005DB1B3EB0E0267EB010707FA0CFCF24043
:100468004CEA0202F740C5E9002700263146BDE8FC
:10047800F0872E4628460BE70646E9E61846FDE6CD
:100488004345E5D2B8EB020E69EB04010138DFE71A
:100498000846D2E760468DE78146B9E7664675E7C4
:1004A80030464AE7ACF1020C394413E702383C44C1
:1004B80024E700BF704700BF80B584B000AFF86084
:1004C800B9607A607B689B68F86898477B681B69A5
:1004D800022098477B689B6AB968012098477B6827
:1004E8009B6A0121152098477B689B6A0121162089
:1004F800984700BF1037BD4680BD0000B0B588B032
:1005080000AF01F075F900F039F800233B60184B93
:100518001B6B174A43F001031363154B1B6B03F066
:1005280001033B603B68134B1B681A464FF4165196
:100538000020FFF7C1FF104B3C1D1D460FCD0FC417
:1005480095E8070003C422800A4B1B685B693A1DC3
:100558001A211046984700BF064B1B68DB6A98476C
:100568000346DBB203F00103DBB2002BF4D1FEE754
:100578000038024000000020D037000880B594B051
:1005880000AF07F1200330220021184603F008F9D4
:1005980007F10C0300221A605A609A60DA601A6147
:1005A8000023BB60224B1B6C214A43F08053136429
:1005B8001F4B1B6C03F08053BB60BB6800237B6040
:1005C8001C4B1B681B4A43F480431360194B1B6880
:1005D80003F480437B607B6802233B620123FB6258
:1005E80010233B630023BB6307F12003184600F088
:1005F80081F80346002B01D000F01EF80F23FB60A2
:1006080000233B6100237B610023BB610023FB6166
:1006180007F10C030021184600F0DCFA0346002B12
:1006280001D000F009F800BF5037BD4680BD00BFBB
:10063800003802400070004080B400AF00BFBD46E3
:100648005DF8047B704780B400AF00BFBD465DF81D
:10065800047B704780B400AFFEE780B400AFFEE7CC
:1006680080B400AFFEE780B400AFFEE780B400AF0F
:1006780000BFBD465DF8047B704780B400AF00BF83
:10068800BD465DF8047B704780B400AF00BFBD462F
:100698005DF8047B704780B500AF01F0FBF800BF40
:1006A80080BD000080B483B000AF00237B60104B96
:1006B8005B6C0F4A43F4804353640D4B5B6C03F44B
:1006C80080437B607B6800233B60094B1B6C084AB6
:1006D80043F080531364064B1B6C03F080533B605C
:1006E8003B6800BF0C37BD465DF8047B704700BF10
:1006F8000038024080B586B000AF78607B68002B78
:1007080001D101235BE27B681B6803F00103002B26
:1007180075D0A34B9B6803F00C03042B0CD0A04BA3
:100728009B6803F00C03082B12D19D4B5B6803F404
:100738008003B3F5800F0BD1994B1B6803F400338A
:10074800002B5BD07B685B68002B57D1012336E216
:100758007B685B68B3F5803F06D1914B1B68904A74
:1007680043F4803313601DE07B685B68B3F5A02F0A
:100778000CD18B4B1B688A4A43F480231360884B47
:100788001B68874A43F4803313600BE0844B1B6873
:10079800834A23F480331360814B1B68804A23F417
:1007A800802313607B685B68002B13D001F086F808
:1007B800386108E001F082F802463B69D31A642BDD
:1007C80001D90323FBE1764B1B6803F40033002BAC
:1007D800F0D014E001F072F8386108E001F06EF82A
:1007E80002463B69D31A642B01D90323E7E16C4B1A
:1007F8001B6803F40033002BF0D100E000BF7B68D6
:100808001B6803F00203002B63D0654B9B6803F061
:100818000C03002B0BD0624B9B6803F00C03082BD6
:100828001CD15F4B5B6803F48003002B16D15C4B33
:100838001B6803F00203002B05D07B68DB68012BE3
:1008480001D00123BBE1564B1B6823F0F8027B68FB
:100858001B69DB00524913430B603AE07B68DB6895
:10086800002B20D04F4B01221A6001F027F8386185
:1008780008E001F023F802463B69D31A022B01D99C
:1008880003239CE1464B1B6803F00203002BF0D0C6
:10089800434B1B6823F0F8027B681B69DB00404967
:1008A80013430B6015E03F4B00221A6001F006F875
:1008B800386108E001F002F802463B69D31A022BBE
:1008C80001D903237BE1364B1B6803F00203002B9D
:1008D800F0D17B681B6803F00803002B30D07B68DD
:1008E8005B69002B16D0304B01221A6000F0E6FF3E
:1008F800386108E000F0E2FF02463B69D31A022B98
:1009080001D903235BE1264B5B6F03F00203002B45
:10091800F0D015E0244B00221A6000F0CFFF3861B8
:1009280008E000F0CBFF02463B69D31A022B01D93D
:10093800032344E11A4B5B6F03F00203002BF0D151
:100948007B681B6803F00403002B00F0A0800023E1
:10095800FB75134B1B6C03F08053002B0FD1002346
:10096800BB600F4B1B6C0E4A43F0805313640C4B57
:100978001B6C03F08053BB60BB680123FB750B4BFA
:100988001B6803F48073002B21D1084B1B68074AAE
:1009980043F48073136000F091FF386111E000BFE9
:1009A8000038024000004742800E47420070004075
:1009B80000F084FF02463B69D31A022B01D90323B6
:1009C800FDE0814B1B6803F48073002BF0D07B683B
:1009D8009B68012B06D17D4B1B6F7C4A43F00103BA
:1009E80013671CE07B689B68052B0CD1774B1B6F4A
:1009F800764A43F004031367744B1B6F734A43F042
:100A0800010313670BE0714B1B6F704A23F001035E
:100A180013676E4B1B6F6D4A23F0040313677B68E3
:100A28009B68002B15D000F049FF38610AE000F000
:100A380045FF02463B69D31A41F28832934201D9F5
:100A48000323BCE0614B1B6F03F00203002BEED0C5
:100A580014E000F033FF38610AE000F02FFF02468F
:100A68003B69D31A41F28832934201D90323A6E0A5
:100A7800564B1B6F03F00203002BEED1FB7D012BBD
:100A880005D1524B1B6C514A23F0805313647B6889
:100A98009B69002B00F092804C4B9B6803F00C0381
:100AA800082B5CD07B689B69022B41D1484B002204
:100AB8001A6000F003FF386108E000F0FFFE02460C
:100AC8003B69D31A022B01D9032378E03F4B1B68FB
:100AD80003F00073002BF0D17B68DA697B681B6A2E
:100AE8001A437B685B6A9B011A437B689B6A5B08B5
:100AF800013B1B041A437B68DB6A1B06334913431B
:100B08004B60334B01221A6000F0D8FE386108E0D0
:100B180000F0D4FE02463B69D31A022B01D9032305
:100B28004DE02A4B1B6803F00073002BF0D045E022
:100B3800274B00221A6000F0C1FE386108E000F07F
:100B4800BDFE02463B69D31A022B01D9032336E0C6
:100B58001E4B1B6803F00073002BF0D12EE07B685E
:100B68009B69012B01D1012329E0184B5B68FB60CD
:100B7800FB6803F480027B68DB699A421CD1FB683E
:100B880003F03F027B681B6A9A4215D1FA6847F660
:100B9800C07313407A68526A93420DD1FB6803F41C
:100BA80040327B689B6A9A4206D1FB6803F0706208
:100BB8007B68DB6A9A4201D0012300E000231846D3
:100BC8001837BD4680BD00BF0070004000380240A5
:100BD8006000474280B584B000AF786039607B68B8
:100BE800002B01D10123CCE0684B1B6803F00F03F5
:100BF8003A689A420CD9654B3A68D2B21A70634B7C
:100C08001B6803F00F033A689A4201D00123B8E049
:100C18007B681B6803F00203002B20D07B681B68ED
:100C280003F00403002B05D0594B9B68584A43F442
:100C3800E05393607B681B6803F00803002B05D022
:100C4800534B9B68524A43F460439360504B9B68F4
:100C580023F0F0027B689B684D4913438B607B68E7
:100C68001B6803F00103002B44D07B685B68012BF1
:100C780007D1474B1B6803F40033002B19D101231C
:100C88007FE07B685B68022B03D07B685B68032B83
:100C980007D13F4B1B6803F00073002B09D10123D8
:100CA8006FE03B4B1B6803F00203002B01D10123CB
:100CB80067E0374B9B6823F003027B685B68344925
:100CC80013438B6000F0FAFDF8600AE000F0F6FDCF
:100CD8000246FB68D31A41F28832934201D90323B2
:100CE8004FE02B4B9B6803F00C027B685B689B0012
:100CF8009A42EBD1254B1B6803F00F033A689A42DE
:100D08000CD2224B3A68D2B21A70204B1B6803F0FF
:100D18000F033A689A4201D0012332E07B681B68CE
:100D280003F00403002B08D0194B9B6823F4E0520E
:100D38007B68DB68164913438B607B681B6803F08C
:100D48000803002B09D0124B9B6823F460427B6890
:100D58001B69DB000E4913438B6000F021F8024643
:100D68000B4B9B681B0903F00F030A49CB5C22FA63
:100D780003F3094A1360094B1B68184600F05AFD33
:100D8800002318461037BD4680BD00BF003C024016
:100D980000380240EC3700080C0000200400002056
:100DA800B0B584B000AF002179600021F96000215E
:100DB80039600021B9605249896801F00C0108299D
:100DC8000DD0082900F29480002902D0042903D00C
:100DD8008EE04C4BBB608EE04B4BBB608BE04849D0
:100DE800496801F03F0179604549496801F480018B
:100DF800002924D042494968890908464FF0000172
:100E080040F2FF144FF0000500EA040201EA05036E
:100E18003D4901FB03F0002101FB02F144183A4966
:100E2800A2FB0101631819467B681A464FF00003BC
:100E3800FFF7C6F902460B461346FB604AE0304B03
:100E48005B689B091A464FF0000340F2FF104FF011
:100E5800000102EA000403EA0105204629464FF092
:100E680000024FF000034B0143EAD06342011046F1
:100E78001946001B61EB05014FF000024FF000031B
:100E88008B0143EA90638201121A63EB01034FF06E
:100E980000004FF00001D90041EA5271D00002462B
:100EA8000B46121945EB03034FF000004FF0000109
:100EB800990241EA9251900202460B4610461946A1
:100EC8007B681A464FF00003FFF77AF902460B4693
:100ED8001346FB600A4B5B681B0C03F003030133EA
:100EE8005B003B60FA683B68B2FBF3F3BB6002E06F
:100EF800044BBB6000BFBB6818461037BD46B0BD89
:100F0800003802400024F40040787D0180B400AF2E
:100F1800034B1B681846BD465DF8047B704700BF4D
:100F28000C00002080B500AFFFF7F0FF0246054B2C
:100F38009B685B0B03F007030349CB5C22FA03F3BE
:100F4800184680BD00380240FC37000880B489B0DC
:100F580000AF7860396000237B6100233B61002388
:100F6800BB610023FB616BE10122FB6902FA03F319
:100F78007B613B681B687A6913403B613A697B690E
:100F88009A4240F05A813B685B68012B0BD03B6862
:100F98005B68022B07D03B685B68112B03D03B686A
:100FA8005B68122B30D17B689B68BB61FB695B0077
:100FB800032202FA03F3DB43BA691340BB613B68BF
:100FC800DA68FB695B0002FA03F3BA691343BB6191
:100FD8007B68BA699A607B685B68BB610122FB69C0
:100FE80002FA03F3DB43BA691340BB613B685B68F1
:100FF8001B0903F00102FB6902FA03F3BA69134300
:10100800BB617B68BA695A607B68DB68BB61FB6956
:101018005B00032202FA03F3DB43BA691340BB61A6
:101028003B689A68FB695B0002FA03F3BA691343E9
:10103800BB617B68BA69DA603B685B68022B03D0E6
:101048003B685B68122B23D1FB69DA087B6808329E
:1010580053F82230BB61FB6903F007039B000F22A2
:1010680002FA03F3DB43BA691340BB613B681A69B0
:10107800FB6903F007039B0002FA03F3BA69134301
:10108800BB61FB69DA087B680832B96943F822104A
:101098007B681B68BB61FB695B00032202FA03F3F0
:1010A800DB43BA691340BB613B685B6803F003022A
:1010B800FB695B0002FA03F3BA691343BB617B68FF
:1010C800BA691A603B685B6803F08053002B00F034
:1010D800B4800023FB60604B5B6C5F4A43F4804341
:1010E80053645D4B5B6C03F48043FB60FB685B4AB5
:1010F800FB699B08023352F82330BB61FB6903F09C
:1011080003039B000F2202FA03F3DB43BA6913407F
:10111800BB617B68524A93422BD07B68514A934209
:1011280025D07B68504A93421FD07B684F4A934230
:1011380019D07B684E4A934213D07B684D4A93423C
:101148000DD07B684C4A934207D07B684B4A934248
:1011580001D107230EE008230CE006230AE005234B
:1011680008E0042306E0032304E0022302E001234D
:1011780000E00023FA6902F0030292009340BA6982
:101188001343BB613549FB699B080233BA6941F8CF
:1011980023203B4B1B68BB613B69DB43BA691340A7
:1011A800BB613B685B6803F48033002B03D0BA69EA
:1011B8003B691343BB61324ABB691360304B5B68C0
:1011C800BB613B69DB43BA691340BB613B685B6841
:1011D80003F40033002B03D0BA693B691343BB61A6
:1011E800274ABB695360264B9B68BB613B69DB435D
:1011F800BA691340BB613B685B6803F48013002B3A
:1012080003D0BA693B691343BB611D4ABB6993604C
:101218001B4BDB68BB613B69DB43BA691340BB61AD
:101228003B685B6803F40013002B03D0BA693B6981
:101238001343BB61124ABB69D360FB690133FB618D
:10124800FB690F2B7FF690AE00BF00BF2437BD4669
:101258005DF8047B704700BF003802400038014049
:10126800000002400004024000080240000C024056
:10127800001002400014024000180240001C024006
:10128800003C014080B487B000AF7860396000232B
:101298003B610023FB600023BB6000237B61CDE042
:1012A80001227B6902FA03F33B613A683B69134008
:1012B800FB60FA683B699A4240F0BD80654A7B69E9
:1012C8009B08023352F82330BB607B6903F00303A9
:1012D8009B000F2202FA03F3BA681340BB607B68D5
:1012E8005D4A93422BD07B685C4A934225D07B6849
:1012F8005B4A93421FD07B685A4A934219D07B6855
:10130800594A934213D07B68584A93420DD07B6860
:10131800574A934207D07B68564A934201D1072324
:101328000EE008230CE006230AE0052308E0042366
:1013380006E0032304E0022302E0012300E0002387
:101348007A6902F0030292009340BA689A4232D155
:10135800494B1A68FB68DB43474913400B60464B0F
:101368005A68FB68DB43444913404B60424B9A6818
:10137800FB68DB43404913408B603F4BDA68FB68EE
:10138800DB433D491340CB607B6903F003039B00BB
:101398000F2202FA03F3BB602E4A7B699B080233D3
:1013A80052F82310BB68DA432A487B699B080A4035
:1013B800023340F823207B681A687B695B000321AD
:1013C80001FA03F3DB431A407B681A607B69DA0889
:1013D8007B68083253F822107B6903F007039B00EF
:1013E8000F2202FA03F3DB437A69D20819407B68BB
:1013F800083243F822107B68DA687B695B000321B6
:1014080001FA03F3DB431A407B68DA607B685A68A9
:1014180001217B6901FA03F3DB431A407B685A60B8
:101428007B689A687B695B00032101FA03F3DB435D
:101438001A407B689A607B6901337B617B690F2B5B
:101448007FF62EAF00BF00BF1C37BD465DF8047B9A
:10145800704700BF0038014000000240000402400D
:1014680000080240000C0240001002400014024034
:1014780000180240001C0240003C014080B485B0C6
:1014880000AF78600B467B807B681A697B881340C5
:10149800002B02D00123FB7301E00023FB73FB7BCD
:1014A80018461437BD465DF8047B704780B483B096
:1014B80000AF78600B467B8013467B707B78002BEF
:1014C80003D07A887B689A6103E07B881A047B687A
:1014D8009A6100BF0C37BD465DF8047B704780B544
:1014E80084B000AF78607B689B6DFB6000F0E6F924
:1014F800B8607B6893F83530DBB2022B08D07B6884
:1015080080225A657B68002283F83420012352E048
:101518007B681B681A687B681B6822F016021A60D1
:101528007B681B685A697B681B6822F080025A61D5
:101538007B681B6C002B03D17B689B6C002B07D04E
:101548007B681B681A687B681B6822F008021A60AF
:101558007B681B681A687B681B6822F001021A60A6
:1015680013E000F0ABF90246BB68D31A052B0CD97F
:101578007B6820225A657B68002283F834207B68C8
:10158800032283F83520032315E07B681B681B685A
:1015980003F00103002BE4D17B68DB6D3F229A4006
:1015A800FB689A607B68002283F834207B680122FC
:1015B80083F83520002318461037BD4680BD00004B
:1015C80080B485B000AF78607B6803F00703FB60E8
:1015D8000C4BDB68BB60BA684FF6FF031340BB6077
:1015E800FB681A02BB68134343F0BF6343F400333C
:1015F800BB60044ABB68D36000BF1437BD465DF8C2
:10160800047B704700ED00E080B400AF044BDB685A
:101618001B0A03F007031846BD465DF8047B7047B4
:1016280000ED00E080B483B000AF0346FB7197F98A
:101638000730002B12DBFB7903F01F020A4997F9E8
:1016480007305B09012000FA02F2203341F8232019
:10165800BFF34F8F00BFBFF36F8F00BF00BF0C37C2
:10166800BD465DF8047B704700E100E080B483B0BC
:1016780000AF03463960FB7197F90730002B0ADB8E
:101688003B68DAB20C4997F907301201D2B20B4421
:1016980083F800230AE03B68DAB20849FB7903F0D3
:1016A8000F03043B1201D2B20B441A7600BF0C3769
:1016B800BD465DF8047B704700E100E000ED00E006
:1016C80080B489B000AFF860B9607A60FB6803F055
:1016D8000703FB61FB69C3F10703042B28BF04233D
:1016E800BB61FB690433062B02D9FB69033B00E0AD
:1016F80000237B614FF0FF32BB6902FA03F3DA4340
:10170800BB681A407B699A404FF0FF317B6901FA48
:1017180003F3D9437B680B40134318462437BD466F
:101728005DF8047B7047000080B582B000AF786038
:101738007B68013BB3F1807F01D301230FE00A4AA4
:101748007B68013B53600F214FF0FF30FFF78EFF9E
:10175800054B00229A60044B07221A6000231846A2
:101768000837BD4680BD00BF10E000E080B582B0FC
:1017780000AF78607868FFF723FF00BF0837BD46E1
:1017880080BD80B586B000AF0346B9607A60FB7350
:1017980000237B61FFF738FF78617A68B968786958
:1017A800FFF78EFF024697F90F3011461846FFF7EC
:1017B8005DFF00BF1837BD4680BD80B582B000AF61
:1017C8000346FB7197F907301846FFF72BFF00BF58
:1017D8000837BD4680BD80B582B000AF78607868B4
:1017E800FFF7A2FF034618460837BD4680BD000034
:1017F80080B500AF0E4B1B680D4A43F400731360AD
:101808000B4B1B680A4A43F480631360084B1B6840
:10181800074A43F4807313600320FFF7A7FF0020F3
:1018280000F008F8FEF73EFF0023184680BD00BF11
:10183800003C024080B582B000AF7860124B1A6855
:10184800124B1B7819464FF47A73B3FBF1F3B2FBD2
:10185800F3F31846FFF7BFFF0346002B01D001231F
:101868000EE07B680F2B0AD8002279684FF0FF3012
:10187800FFF787FF064A7B681360002300E0012317
:1018880018460837BD4680BD0C000020080000201F
:101898000400002080B400AF064B1B781A46064BA4
:1018A8001B681344044A136000BFBD465DF8047BFF
:1018B800704700BF080000206400002080B400AF1B
:1018C800034B1B681846BD465DF8047B704700BF94
:1018D8006400002080B400AF084BD3F88830074A72
:1018E80043F47003C2F88830044B4FF000629A60EA
:1018F80000BFBD465DF8047B704700BF00ED00E007
:1019080080B483B000AF0346FB7197F90730002B12
:101918000BDBFB7903F01F02074997F907305B09D6
:10192800012000FA02F241F8232000BF0C37BD461F
:101938005DF8047B704700BF00E100E080B483B02D
:1019480000AF0346FB7197F90730002B0CDBFB79DE
:1019580003F01F02074997F907305B09012000FAD5
:1019680002F2603341F8232000BF0C37BD465DF812
:10197800047B704700E100E080B48DB000AF786070
:101988007B68534A93420DD10023FB62514B1B6B7A
:10199800504A43F0010313634E4B1B6B03F00103E2
:1019A800FB62FB6A7B684C4A93420DD10023BB6201
:1019B800484B1B6B474A43F002031363454B1B6BB1
:1019C80003F00203BB62BB6A7B68444A93420DD1B1
:1019D80000237B623F4B1B6B3E4A43F004031363B7
:1019E8003C4B1B6B03F004037B627B6A7B683C4ABD
:1019F80093420DD100233B62364B1B6B354A43F0B3
:101A080008031363334B1B6B03F008033B623B6A09
:101A18007B68344A93420DD10023FB612D4B1B6B2D
:101A28002C4A43F0100313632A4B1B6B03F010037B
:101A3800FB61FB697B682C4A93420DD10023BB6193
:101A4800244B1B6B234A43F020031363214B1B6B6E
:101A580003F02003BB61BB697B68244A93420DD124
:101A680000237B611B4B1B6B1A4A43F04003136333
:101A7800184B1B6B03F040037B617B697B681C4A36
:101A880093420DD100233B61124B1B6B114A43F06B
:101A9800800313630F4B1B6B03F080033B613B69AF
:101AA8007B68144A93420DD10023FB60094B1B6BE2
:101AB800084A43F480731363064B1B6B03F480736B
:101AC800FB60FB6800BF3437BD465DF8047B704798
:101AD80000000240003802400004024000080240B2
:101AE800000C02400010024000140240001802409E
:101AF800001C02400020024080B483B000AF786030
:101B08007B68454A934206D1444B5B6A434A43F09B
:101B18001003536235E07B68414A934206D13F4B3C
:101B28001B6A3E4A43F4003313622AE07B683D4A4D
:101B3800934206D1394B1B6A384A43F48023136217
:101B48001FE07B68384A934206D1344B1B6A334AFC
:101B580043F40023136214E07B68344A934206D1AD
:101B68002E4B1B6A2D4A43F48013136209E07B68ED
:101B78002F4A934205D1294B5B6A284A43F0200338
:101B8800536200BF00BF00BF00BF7B68224A934278
:101B980006D1224B5B6A214A23F01003536235E0D9
:101BA8007B681F4A934206D11C4B1B6A1B4A23F4CD
:101BB800003313622AE07B681A4A934206D1174B16
:101BC8001B6A164A23F4802313621FE07B68164AB7
:101BD800934206D1114B1B6A104A23F40023136267
:101BE80014E07B68114A934206D10C4B1B6A0B4ADE
:101BF80023F48013136209E07B680D4A934205D1F0
:101C0800064B5B6A054A23F02003536200BF0C377A
:101C1800BD465DF8047B7047001001400038024063
:101C28000044004000480040004C00400050004084
:101C38000014014080B483B000AF084B1B687B6080
:101C48000023BA8862F30F03FA8862F31F43184629
:101C58000C37BD465DF8047B704700BF04380008A8
:101C680080B483B000AF78607B681B6818460C3777
:101C7800BD465DF8047B704780B582B000AF7860E0
:101C880039603B68DB6ADB7A03F00103002B01D083
:101C9800002366E03B68DB6A7A681A603B68DB6AA7
:101CA80000221A713B68DB6A00225A713B68DB6AC2
:101CB80000229A713B68DB6A0022DA713B68DB6AB2
:101CC80000221A723B68DB6A00225A723B68DB6AA0
:101CD80000229A723B68DB6A0022DA603B681B6B61
:101CE800002283F821203B681B6B24220021184620
:101CF80001F056FD3B68DB68002B05D03B68DB68CC
:101D08001B681846FFF738FE3B681B69002B05D097
:101D18003B681B691B681846FFF72EFE3B685B692A
:101D2800002B05D03B685B691B681846FFF724FE4B
:101D38003B689B69002B05D03B689B691B6818466C
:101D4800FFF71AFE3B68DB69002B05D03B68DB69AF
:101D58001B681846FFF710FE3B68DB6A0122DA723F
:101D6800002318460837BD4680BD80B582B000AF55
:101D780078607B68DB68002B09D07B68DB681A68B1
:101D88007B68DB689B8819461046FFF77BFA7B68FF
:101D98001B69002B09D07B681B691A687B681B6963
:101DA8009B8819461046FFF76DFA7B685B69002B24
:101DB80009D07B685B691A687B685B699B881946F0
:101DC8001046FFF75FFA7B689B69002B09D07B6898
:101DD8009B691A687B689B699B8819461046FFF7C0
:101DE80051FA7B68DB69002B09D07B68DB691A68CC
:101DF8007B68DB699B8819461046FFF743FA7B68C6
:101E08009B6A002B04D07B689B6A1B6800221A60BF
:101E18007B685B6A002B04D07B685B6A1B680022C6
:101E28001A607B68DB6A0022DA72002318460837DA
:101E3800BD4680BD80B588B000AF03463960FB71F0
:101E4800FB79002B08D0FB79022B05D0FB79012BFD
:101E580002D06FF004036BE1FB79022B00F0838062
:101E6800022B00F36481002B02D0012B78D05EE1B5
:101E78003B6893F920301846FFF79FFC3B685B6886
:101E8800914A934206D1914B5B6C904A23F0100320
:101E980053643AE03B685B688D4A934206D18B4BAA
:101EA8001B6C8A4A23F4003313642EE03B685B689A
:101EB800884A934206D1854B1B6C844A23F48023BD
:101EC800136422E03B685B68834A934206D17F4BE8
:101ED8001B6C7E4A23F40023136416E03B685B689E
:101EE8007E4A934206D1794B1B6C784A23F48013BF
:101EF80013640AE03B685B68794A934205D1734BE7
:101F08005B6C724A23F0200353643B68DB6A00224F
:101F18001A713B68DB6A00225A713B68DB6A00224F
:101F28009A713B68DB6A0022DA713B68DB6A00223F
:101F38001A723B68DB6A00225A723B68DB6A00222D
:101F48009A723B681B6B002283F821203B68DB6A8E
:101F5800DA7A3B68DB6A22F00202D2B2DA72E6E091
:101F68006FF00303E4E03B68DB6ADB7A03F001030C
:101F7800002B02D14FF0FF33DAE03B68DB6ADB7AF3
:101F880003F00203002B01D00023D1E03B68DB6A99
:101F980000221A713B68DB6A00225A713B68DB6ACF
:101FA80000229A713B68DB6A0022DA713B68DB6ABF
:101FB80000221A723B68DB6A00225A723B68DB6AAD
:101FC80000229A723B681B6B002283F821203B6831
:101FD8001B6B00225A833B681B6B0022DA613B684B
:101FE8001B6B002283F820203B68DB6A0022DA6042
:101FF8003B68DB6A00221A613B68DB6A0322DA72FB
:102008003B685B68304A93420ED10023FB612F4B3B
:102018005B6C2E4A43F0100353642C4B5B6C03F04B
:102028001003FB61FB6970E03B685B68284A9342D8
:102038000ED10023BB61254B1B6C244A43F40033AB
:102048001364224B1B6C03F40033BB61BB695CE077
:102058003B685B681F4A93420ED100237B611B4B90
:102068001B6C1A4A43F480231364184B1B6C03F44B
:1020780080237B617B6948E03B685B68164A934232
:102088000ED100233B61114B1B6C104A43F4002313
:1020980013640E4B1B6C03F400233B613B6934E073
:1020A8003B685B680D4A93421CD10023FB60074BD9
:1020B8001B6C064A43F480131364044B1B6C03F433
:1020C8008013FB60FB6820E00010014000380240EC
:1020D8000044004000480040004C004000500040D0
:1020E800001401403B685B68134A93420DD10023FA
:1020F800BB60124B5B6C114A43F0200353640F4BD7
:102108005B6C03F02003BB60BB683B6893F920302D
:102118001846FFF713FC3B6893F920301846FFF781
:10212800EFFB3B685B681846FFF7E6FC00BF00233F
:1021380018462037BD4680BD0014014000380240D3
:1021480080B586B000AFF860B9607A60FB68002B94
:1021580002D0BB68002B02D16FF004034AE07B6811
:10216800DB6ADB7A03F00403002B02D14FF0FF3364
:1021780040E07B681B6B93F82130002B02D06FF096
:10218800010337E07B681B6B012283F821207B6801
:102198001B6BFA68DA607B681B6BBA685A607B68ED
:1021A8001B6B00225A617B68DB6ADB68022B18D143
:1021B8007B681B6BDB69002B13D17B681B6B0122CF
:1021C800DA617B681B6B18337A68B968184600F0C7
:1021D80015F878617B6913F1020F02D16FF00103E2
:1021E80008E07B685B68DA687B685B6842F08002BD
:1021F800DA60002318461837BD4680BD80B586B022
:1022080000AFF860B9607A60FB68002B02D0BB6849
:10221800002B02D16FF0040360E07B68DB6ADB7A95
:1022280003F00403002B02D14FF0FF3356E07B6824
:10223800DB6A5B79012B02D16FF001034EE07B680A
:102248005B68DA687B685B6822F02002DA607B688A
:102258001B6BBA681A607B68DB6A00221A727B689B
:10226800DB6A00225A727B68DB6A0022DA717B68BB
:10227800DB6A00229A727B681B6BFA689A607B683B
:102288001B6B00221A617B68DB6A01225A717B682A
:102298005B68DA687B685B6842F03002DA607B680A
:1022A800DB6ADB68022B18D17B681B6BDB69002BB0
:1022B80013D17B681B6B0222DA617B681B6B1A33B4
:1022C8007A68B9681846FFF73BFF78617B6913F1B4
:1022D800020F02D16FF0010300E0002318461837FF
:1022E800BD4680BD80B586B000AFF860B9607A6041
:1022F8003B60FB68002B05D0BB68002B02D07B68D5
:10230800002B02D16FF004032CE03B68DB6ADB7A18
:1023180003F00403002B02D14FF0FF3322E03B68A7
:10232800DB6ADB68022B19D13B681B6B0322DA617D
:102338003A687968B868FFF761FF78617B69002BB4
:1023480001D07B690EE03A687968F868FFF7F8FE13
:1023580078617B69002B04D07B6903E04FF0FF3381
:1023680000E0002318461837BD4680BD80B483B00E
:1023780000AF78607B681B6B5B6918460C37BD46FD
:102388005DF8047B704780B483B000AF78607B68E9
:102398001B6B1B6918460C37BD465DF8047B7047FC
:1023A800B0B592B000AFF860B9607A607B68DB6A5C
:1023B800DB7A03F00203002B03D14FF0FF3300F068
:1023C80012BE0023BB6300237B6300233B63FB68CF
:1023D800DBB2153B052B00F2D88101A252F823F09D
:1023E800A3250008632600080124000877240008B4
:1023F800D12400081D250008BB68002B1CD07B6871
:102408001B6B93F82130002B03D06FF0010300F011
:10241800EABD7B681B6B012283F821207B681B6B5C
:10242800012283F820207B685B68DA687B685B6838
:1024380042F08102DA6017E07B681B6B93F820306A
:10244800002B11D07B685B68DA687B685B6822F0D8
:102458008002DA607B681B6B002283F820207B688F
:102468001B6B002283F82120002300F0BCBD7B6891
:102478005B68DA687B685B6822F0C002DA607B68B8
:102488005B6A002B13D07B681B6B93F82130002B01
:102498000DD07B685B685A697B685B6822F08002B4
:1024A8005A617B685B6A1B681846FFF718F87B68F7
:1024B8001B6B002283F820207B681B6B002283F8AB
:1024C8002120002300F08FBD7B685B68DA687B6899
:1024D8005B6822F02002DA607B689B6A002B12D0CE
:1024E8007B68DB6A5B79002B0DD07B685B685A6977
:1024F8007B685B6822F040025A617B689B6A1B68B4
:102508001846FEF7ECFF7B68DB6A00225A7100234D
:1025180000F069BD7B685B68DA687B685B6822F0FD
:10252800E002DA607B685B6A002B13D07B681B6B68
:1025380093F82130002B0DD07B685B685A697B6863
:102548005B6822F080025A617B685B6A1B681846E8
:10255800FEF7C5FF7B689B6A002B12D07B68DB6A9D
:102568005B79002B0DD07B685B685A697B685B6878
:1025780022F040025A617B689B6A1B681846FEF786
:10258800AEFF7B68DB6A00225A717B681B6B0022F6
:1025980083F82120002300F026BD7B68DB68002B30
:1025A80003D14FF0FF3300F01EBDBB68002B31D0C4
:1025B8007B68DB6ADB68062B1AD07B68DB689B8844
:1025C8007B610223BB617B68DB681B89FB617B68DD
:1025D800DB685B893B627B68DB68DB887B627B68E6
:1025E800DB681B6807F1140211461846FEF7AEFCBB
:1025F8007B68DB6ADA7A7B68DB6A42F00802D2B26F
:10260800DA727B685B68DA687B685B6842F00802AC
:10261800DA601FE07B685B68DA687B685B6822F0D9
:102628000802DA607B68DB6ADA7A7B68DB6A22F0A8
:102638000802D2B2DA727B68DB6ADB68062B09D043
:102648007B68DB681A687B68DB689B8819461046DC
:10265800FEF718FE002300F0C6BC7B681B69002B40
:1026680003D14FF0FF3300F0BEBCBB68002B64D031
:102678007B68DB6ADB68062B1FD07B68DB6ADB685C
:10268800042B1AD07B681B699B887B610223BB6182
:102698007B681B691B89FB617B681B695B893B62E3
:1026A8007B681B69DB887B627B681B691B6807F199
:1026B800140211461846FEF749FC7B68DB6ADA7A91
:1026C8007B68DB6A42F01002D2B2DA727B685B6820
:1026D8005A697B685B6842F001025A617B685B68F3
:1026E8001A697B685B6842F040021A617B685B6824
:1026F800DA687B685B6842F01002DA607B68DB6A44
:102708005B79002B05D07B689B6A002B01D00123E5
:1027180000E00023002B07D17B685B68DA687B68E0
:102728005B6842F02002DA607B685B68DA687B6885
:102738005B6842F00402DA6024E07B685B68DA6870
:102748007B685B6822F00402DA607B68DB6ADA7A0D
:102758007B68DB6A22F01002D2B2DA727B68DB6A2D
:10276800DB68062B0ED07B68DB6ADB68042B09D09C
:102778007B681B691A687B681B699B881946104629
:10278800FEF780FD002300F02EBC7B68DB6A5B79D6
:10279800002B05D17B681B6B93F82130002B03D0ED
:1027A8006FF0010300F01FBC7B685B68DB6803F017
:1027B8000803002B0AD07B685B681B6803F04003A2
:1027C800002B03D16FF0010300F00DBCFB68DBB2F6
:1027D800013B132B00F2278101A252F823F000BF1E
:1027E800392800083F280008692800086F280008D1
:1027F8007D2800088B2800082F2A00082F2A0008A7
:102808002F2A00082F2A00082F2A00082F2A00083C
:102818002F2A00082F2A00082F2A0008AD280008B0
:10282800BB2800083F29000873290008032A00086C
:1028380001237B64FAE07B681B7803F00203DBB2B8
:10284800002B0AD07B6B43F400637B637B6B43F400
:1028580080737B6302237B64E8E06FF00603C2E3C6
:102868006FF00603BFE33B6B43F008033B630423AD
:102878007B64DBE03B6B43F002033B6305237B6433
:10288800D4E07B681B7803F02003DBB2002B06D072
:102898003B6B43F020033B6306237B64C6E06FF089
:1028A8000603A0E37B681B6BBA6892B25A830023C5
:1028B80099E37B68DB6ADB68052B37D1BB68002BA3
:1028C80037D07B685B685A697B685B6842F00402B2
:1028D8005A617B689B689847F862A74AFB6AB2FB13
:1028E800F3F3FB620123FB6309E0FB6AFA6B02FB6B
:1028F80003F3BA689A4206D3FB6B0133FB63FB6BA5
:10290800FF2BF2D900E000BFFB6BB3F5807F02D14B
:102918004FF0FF3367E37B685B689B6923F0FF0137
:102928007B685B68FA6B0A439A6102E04FF0FF33F9
:1029380059E3002357E37B68DB6ADB68062B11D178
:10294800BB68FF2B02D94FF0FF334CE37B685B6811
:102958009B6923F47F417B685B68BA680A439A6184
:10296800002340E34FF0FF333DE37B68DB6ADB681D
:10297800062B3FD17B689B689847F8627E4AFB6AC2
:10298800B2FBF3F3FB620123FB631CE0FB6AFA6B07
:1029980002FB03F3C82202FB03F2BB68662101FBBA
:1029A80003F39A420CD2FB6AFA6B02FB03F3C822C8
:1029B80002FB03F2BB68622101FB03F39A4206D8CB
:1029C800FB6B0133FB63FB6B3F2BDFD900E000BFE0
:1029D800FB6B402B02D14FF0FF3304E37B685B684D
:1029E8009B6923F0FF017B685B68FA6B0A439A6175
:1029F8000023F8E24FF0FF33F5E27B68DB6ADB681F
:102A0800062B0BD1BB68002B0BD07B685B685A691F
:102A18007B685B6842F010025A6102E04FF0FF33B6
:102A2800E1E20023DFE26FF00303DCE2FB6803F47A
:102A3800E063B3F5E06F08D0B3F5E06F2CD8002B56
:102A48000BD0B3F5807F16D026E0FB6803F4405323
:102A5800002B24D16FF00803C5E2FB6803F4405350
:102A6800002B1ED07B6B43F020037B63BB6B43F4CE
:102A78008053BB6315E0FB6803F44053002B02D07E
:102A88006FF00803AFE27B6B43F020037B63BB6B03
:102A980043F48053BB6305E06FF00803A3E200BF73
:102AA80000E000BFFB6803F44053B3F5005F0CD0AF
:102AB800B3F5005F0ED8002B0FD0B3F5805F09D1B6
:102AC800BB6B43F48063BB6308E0BB6B43F4C06338
:102AD800BB6303E06FF0090385E200BFFB6803F402
:102AE8004043B3F5404F17D0B3F5404F19D8B3F56D
:102AF800004F0CD0B3F5004F13D8002B14D0B3F50A
:102B0800804F0ED17B6B43F400537B630DE07B6BEE
:102B180043F440537B6308E07B6B43F480537B634F
:102B280003E06FF00A035EE200BFFB6803F4403382
:102B3800B3F5403F37D0B3F5403F4DD8B3F5003F2C
:102B48001FD0B3F5003F47D8002B03D0B3F5803F23
:102B580003D041E000233B6441E07B681B7823F00D
:102B68007F03DBB2002B09D04FF480333B643B6B0F
:102B780043F480733B6332E000CA9A3B6FF00B0367
:102B880031E27B685B7803F00103DBB2002B07D0EE
:102B98004FF400333B643B6B43F4C0633B631EE07C
:102BA8006FF00B031FE27B681B7823F07F03DBB217
:102BB800002B0ED07B685B7803F00103DBB2002B9F
:102BC80007D04FF440333B643B6B43F4E0633B6313
:102BD80005E06FF00B0306E26FF00B0303E27B6C7A
:102BE800022B20D1FB6803F48023002B0AD0B3F515
:102BF800802F04D17B6B43F480637B6303E06FF029
:102C08000C03F0E100BFFB6803F40023002B0CD099
:102C1800B3F5002F04D17B6B43F400737B6305E0AD
:102C28006FF00D03DFE100BF00E000BF7B689B6829
:102C38009847024613469B0013449A001A44BB68FF
:102C48009B00B2FBF3F3984AA2FB03235B091C0128
:102C58007B689B689847024613469B0013449A007A
:102C68001A44BB689B00B2FBF3F57B689B689847E6
:102C7800024613469B0013449A001A44BB689B0003
:102C8800B2FBF3F3884AA2FB03235B09642202FB2D
:102C980003F3EB1A1B013233834AA2FB03235B09BC
:102CA80003F00F032343FB627B689B689847034646
:102CB8001A01FB6A9BB2B2FBF3F31B09BB62BB6A46
:102CC800642202FB03F2BB68662101FB03F39A420C
:102CD80009D2BB6A642202FB03F2BB68622101FBD2
:102CE80003F39A4202D86FF007037CE17B685B68C4
:102CF800DA687B685B6822F40052DA607B685B689C
:102D0800FA6A9A607B68DB6A7A6CDA607B68DB6AED
:102D18003A6C1A617B68DB68002B4DD07B68DB6AF4
:102D2800DB68062B1BD17B68DB689B887B610223F1
:102D3800BB617B68DB681B89FB617B68DB685B893F
:102D48003B627B68DB68DB887B627B68DB681B68CF
:102D580007F1140211461846FEF7F8F82CE07B68D4
:102D6800DB6ADB7A03F00803002B1BD07B68DB6887
:102D78009B887B610223BB617B68DB681B89FB61E5
:102D88007B68DB685B893B627B68DB68DB887B622E
:102D98007B68DB681B6807F1140211461846FEF7CA
:102DA800D5F809E07B68DB681A687B68DB689B8874
:102DB80019461046FEF766FA7B681B69002B3FD060
:102DC8007B68DB6ADB68042B01D0062B0AD17B68A1
:102DD8001B691A687B681B699B8819461046FEF7B1
:102DE80051FA2EE07B68DB6ADB7A03F01003002BD4
:102DF8001BD07B681B699B887B610223BB617B6856
:102E08001B691B89FB617B681B695B893B627B686B
:102E18001B69DB887B627B681B691B6807F11402EE
:102E280011461846FEF792F80BE07B681B691A6892
:102E38007B681B699B8819461046FEF723FA00E059
:102E480000BF7B685B69002B30D07B68DB6ADB687E
:102E5800022B01D0062B1BD17B685B699B887B61A9
:102E68000223BB617B685B691B89FB617B685B69CB
:102E78005B893B627B685B69DB887B627B685B693B
:102E88001B6807F1140211461846FEF75FF80EE0BA
:102E98007B685B691A687B685B699B881946104682
:102EA800FEF7F0F903E000BF1F85EB5100BF7B6818
:102EB8009B69002B3AD03B6CB3F5803F03D03B6C49
:102EC800B3F5403F1BD17B689B699B887B610223DC
:102ED800BB617B689B691B89FB617B689B695B891C
:102EE8003B627B689B69DB887B627B689B691B68AC
:102EF80007F1140211461846FEF728F816E07B6819
:102F08009B699B887B610123BB617B689B691B89EB
:102F1800FB617B689B695B893B627B689B691B687B
:102F280007F1140211461846FEF710F87B68DB69B2
:102F3800002B3AD03B6CB3F5003F03D03B6CB3F5A4
:102F4800403F1BD17B68DB699B887B610223BB61A7
:102F58007B68DB691B89FB617B68DB695B893B629A
:102F68007B68DB69DB887B627B68DB691B6807F150
:102F7800140211461846FDF7E9FF16E07B68DB6985
:102F88009B887B610023BB617B68DB691B89FB61D4
:102F98007B68DB695B893B627B68DB691B6807F1DF
:102FA800140211461846FDF7D1FF7B685B68BA6BBF
:102FB800DA607B685B687A6B1A617B685B683A6B7E
:102FC8005A617B685B68DA687B685B6842F4005228
:102FD800DA607B68DB6ADA7A7B68DB6A42F00402D3
:102FE800D2B2DA72002318464837BD46B0BD00BFDA
:102FF80080B485B000AF78607B681B6B93F8213094
:10300800002B04D03B7B43F001033B7310E07B684B
:103018005B681B6803F04003002B0CBF01230023EF
:10302800DBB203F00103DAB23B7B62F300033B73CC
:103038007B68DB6A5B7903F00103DAB23B7B62F3FE
:1030480041033B737B68DB6A9B7903F00103DAB2C7
:103058003B7B62F382033B737B68DB6ADB7903F0BB
:103068000103DAB23B7B62F3C3033B737B68DB6A21
:103078001B7A03F00103DAB23B7B62F304133B7360
:103088007B68DB6A5B7A03F00103DAB23B7B62F3AD
:1030980045133B737B68DB6A9B7A03F00103DAB262
:1030A8003B7B62F386133B73FB6818461437BD46B7
:1030B8005DF8047B704780B582B000AF0346396085
:1030C800FB71FB79002B0BD0FB79012B08D0FB7926
:1030D800022B05D0FB79032B02D06FF0040349E0E3
:1030E800FB79032B45DC022B40DA002B02D0012BA5
:1030F8001ED03EE03B68DB6A1B69002B05D03B68AD
:10310800DB6A1B69B3F5003F0ED13B689B69002B56
:103118000DD03B689B6918683B689B699B880122B6
:103128001946FEF7C3F902E04FF0FF3322E020E032
:103138003B68DB6A1B69002B05D03B68DB6A1B69AF
:10314800B3F5003F0ED13B689B69002B0DD03B685F
:103158009B6918683B689B699B8800221946FEF7A3
:10316800A5F902E04FF0FF3304E002E06FF003033B
:1031780000E0002318460837BD4680BD80B584B0FE
:1031880000AF78603B7B6FF300033B737B68DB6ABF
:103198001B69002B05D07B68DB6A1B69B3F5803F90
:1031A80014D17B68DB69002B10D07B68DB691A6857
:1031B8007B68DB699B8819461046FEF75FF9034672
:1031C800002B03D13B7B43F001033B733B7B6FF345
:1031D80041033B733B7B6FF3C3033B733B7B6FF351
:1031E80082033B73FB6818461037BD4680BD80B527
:1031F80086B000AF78607B685B681B68FB60002363
:10320800BB6000237B6100237B827B685B68DA6894
:10321800FB68134003F02003002B00F08B807B68D1
:10322800DB6A5B79002B0BD17B685B685B687B682A
:10323800DB6A0122DA717B6943F020037B6179E064
:103248007B68DB6ADB68022B08D17B681B6BDB6958
:10325800012B03D17B685B685B6803E07B685B6874
:103268005B687B827B681A6B9368591C91607A8AC9
:10327800D2B21A707B685B68DB68BB60BB6803F41A
:103288008063002B0ED1BB6803F48053002B09D058
:103298007B8A1B0A98B27B681A6B9368591C9160E9
:1032A800C2B21A707B681B6B1A6901321A617B689B
:1032B8001B6B1A697B681B6B1B689A423AD17B6847
:1032C8005B68DA687B685B6822F01002DA607B680A
:1032D800DB6A00225A717B68DB6ADB68022B23D128
:1032E8007B681B6BDB69BB607B681B6B0022DA6148
:1032F800BB68032B13D0BB68032B1AD8BB68012B00
:1033080003D0BB68022B05D013E07B6943F00103AF
:103318007B610FE07B6943F002037B610AE07B6914
:1033280043F004037B6105E07B6943F002037B61A2
:1033380000E000BF7B685B68DA68FB68134003F055
:103348001003002B06D07B685B685B687B6943F0E1
:1033580040037B617B685B68DA68FB68134003F0B5
:103368008003002B00F088807B681B6B93F820306B
:10337800002B08D07B685B68DA687B685B6842F082
:103388000102DA6078E07B681B6B5A687B681B6B0C
:103398005B699A4230D07B68DB6ADB68022B09D113
:1033A8007B681B6BDB69022B04D17B681B6B5B8B17
:1033B8007B8221E07B681A6BD368591CD1601B782B
:1033C8007B827B685B68DB68BB60BB6803F48063F7
:1033D800002B11D1BB6803F48053002B0CD07B6801
:1033E8001A6BD368591CD1601B781B021AB2B7F943
:1033F800123013431BB27B827B681B6B5A69013204
:103408005A617B685B687A8A5A607B681B6B5A686A
:103418007B681B6B5B699A422ED17B685B68DA68B4
:103428007B685B6822F08002DA607B685B68DA6838
:103438007B685B6842F04002DA607B681B6B0022A5
:1034480083F821207B68DB6ADB68022B10D17B685C
:103458001B6BDB69012B0FD17B68DB6ADB7A03F01E
:103468001003002B08D17B6943F001037B6103E063
:103478007B6943F001037B617B685B68DA68FB6802
:10348800134003F04003002B0BD07B685B68DA68BD
:103498007B685B6822F04002DA607B6943F00803CE
:1034A8007B61FB6803F00803002B0AD07B685B682C
:1034B8005B687B68DB6A0122DA717B6943F0200371
:1034C8007B61FB6803F00203002B0AD07B685B6812
:1034D8005B687B68DB6A01225A727B6943F48073FC
:1034E8007B61FB6803F00103002B0AD07B685B68F3
:1034F8005B687B68DB6A01229A727B6943F400731C
:103508007B61FB6803F48073002B0FD07B685B68DA
:103518001A687B685B6822F480721A607B68DB6AD1
:1035280001221A727B6943F080037B61FB6803F414
:103538000073002B0BD07B685B681A687B685B683C
:1035480022F400721A607B6943F480637B617B69B3
:10355800002B06D07B68DB6A1B68002B01D0012397
:1035680000E00023002B04D07B68DB6A1B687869C5
:10357800984700BF1837BD4680BD000080B500AF32
:103588000248FEF76DFB0346184680BD2038000848
:1035980080B582B000AF786004497868FEF76CFBAC
:1035A800034618460837BD4680BD00BF20380008CE
:1035B80080B500AF0248FEF7D8FB0346184680BD29
:1035C8002038000880B582B000AF0346FB71FB7954
:1035D80004491846FEF72EFC034618460837BD4630
:1035E80080BD00BF2038000880B582B000AF786089
:1035F8003960054A39687868FEF7A2FD034618461F
:103608000837BD4680BD00BF2038000880B582B0AD
:1036180000AF78603960054A39687868FEF7EEFDD2
:10362800034618460837BD4680BD00BF203800084D
:1036380080B584B000AFF860B9607A60054B7A68ED
:10364800B968F868FEF74EFE034618461037BD46BF
:1036580080BD00BF2038000880B500AF0248FEF7E3
:1036680085FE0346184680BD2038000880B500AFA7
:103678000248FEF788FE0346184680BD2038000839
:1036880080B582B000AF78603960054A39687868DB
:10369800FEF786FE034618460837BD4680BD00BFC4
:1036A8002038000880B500AF0248FFF7A1FC0346A8
:1036B800184680BD2038000880B582B000AF0346A8
:1036C800FB71FB7904491846FFF7F5FC03461846D9
:1036D8000837BD4680BD00BF2038000880B500AF60
:1036E8000248FFF74BFD0346184680BD2038000806
:1036F80080B500AF0248FFF77AFD00BF80BD00BF6C
:1037080020380008DFF834D0002103E00C4B5B5868
:10371800435004310B480C4B42189A42F6D30B4ADB
:1037280002E0002342F8043B094B9A42F9D3FEF722
:10373800D1F800F011F8FCF7E1FE70470000022014
:103748009C38000800000020100000201000002015
:1037580068000020FEE7000070B50D4D0D4C641B9D
:10376800A4100026A64209D10B4D0C4C00F020F8FD
:10377800641BA4100026A64205D170BD55F8043B71
:1037880098470136EEE755F8043B98470136F2E7CB
:1037980094380008943800089438000898380008CD
:1037A80002440346934200D1704703F8011BF9E72E
:1037B800F8B500BFF8BC08BC9E467047F8B500BF16
:0837C800F8BC08BC9E467047E6
:1037D00048656C6C6F20576F726C64212049276DAF
:1037E00020776F726B696E67210000000000000097
:1037F00000000000010203040607080900000000A1
:103800000102030404020C0200000240000207004F
:10381000000000000000024000040700000000005B
:1038200039060000001001402D0F0008083800087C
:103830001438000800000000000000000000000034
:103840002500000000000000000000002C00002007
:10385000400000203D1C000885350008993500080F
:10386000B9350008CD350008F135000815360008D7
:1038700039360008613600087536000889360008B8
:0C388000AD360008C1360008E53600082F
:08388C006CC9FF7F0100000080
:04389400AD0100087A
:04389800890100089A
:10389C005438000810000000010000000024F4005F
:040000050800370DAB
:00000001FF
